:100000000C94FA010C9422020C9422020C94220209
:100010000C9422020C9422020C9422020C942202D0
:100020000C9422020C9422020C9422020C942202C0
:100030000C9422020C9422020C9422020C942202B0
:100040000C9422100C9422020C9422020C94220292
:100050000C9422020C9422020C9422020C94220290
:100060000C9422020C942202000000000000000008
:100070000060FAFA6000000000E0E000E0E000004C
:1000800028FEFE28FEFE28002474D6D65C48000018
:1000900062660C18306646000C5EF2BAEC5E120026
:1000A00020E0C0000000000000387CC68200000094
:1000B0000082C67C3800000010547C38387C541014
:1000C00010107C7C101000000005070600000000E6
:1000D00010101010101000000000060600000000B4
:1000E000060C183060C080007CFE9AB2FE7C0000D6
:1000F0004242FEFE0202000046CE9A92F6660000E0
:1001000044C69292FE6C0000183868C8FEFE0800D3
:10011000E4E6A2A2BE9C00003C7ED2929E0C0000AF
:10012000C0C68E98F0E000006CFE9292FE6C00005B
:1001300060F29296FC780000000036360000000065
:10014000000537360000000010386CC68200000041
:1001500028282828282800000082C66C38100000B3
:1001600040C08A9AF06000007CFE82BABAF878003B
:100170003E7EC8C87E3E000082FEFE9292FE6C006B
:10018000387CC68282C6440082FEFE82C6FE3800EB
:1001900082FEFE92BA82C60082FEFE92B880C00045
:1001A000387CC6828ACE4E00FEFE1010FEFE000095
:1001B0000082FEFE820000000C0E0282FEFC800027
:1001C00082FEFE1038EEC60082FEFE8202060E009F
:1001D000FEFE603060FEFE00FEFE603018FEFE0097
:1001E000387CC682C67C380082FEFE9290F06000A9
:1001F00078FC848EFE7A000082FEFE989CF66200F7
:1002000064E6B29ADE4C0000C082FEFE82C00000AE
:10021000FEFE0202FEFE0000F8FC0606FCF80000EE
:10022000FEFE0C180CFEFE00C6EE381038EEC600BE
:10023000E0F21E1EF2E00000E6CE9AB2E2C68E00A8
:1002400000FEFE828200000080C06030180C0600B4
:10025000008282FEFE000000103060C0603010009E
:1002600001010101010101010000C0E020000000C6
:10027000042E2A2A3C1E020082FCFE22223E1C0082
:100280001C3E2222361400000C1E1292FCFE0200BC
:100290001C3E2A2A3A180000127EFE92C04000003E
:1002A000193D25251F3E200082FEFE10203E1E0027
:1002B0000022BEBE02000000022321BFBE000000DB
:1002C00082FEFE081C3622000082FEFE02000000B4
:1002D0003E3E3018303E1E003E3E20203E1E0000B6
:1002E0001C3E22223E1C0000213F1F25243C1800FA
:1002F000183C24251F3F2100223E1E2238180000F2
:10030000123A2A2A2E24000000207CFE222400001B
:100310003C3E02023C3E0200383C06063C380000EF
:100320003C3E060C063E3C0022361C081C362200D1
:10033000393D05053F3E000032262E3A32260000A8
:1003400010107CEE82820000000000EEEE00000043
:100350008282EE7C1010000000626404046462007B
:100360001E3E62C2623E1E000062640404646200BB
:100370000062640404646200F888F80000F8B8A819
:10038000E888A8F8E020F8E8A8B8F8A8B88080F8CD
:10039000F8A8F8E0A0F800000000240027002A00D8
:1003A00000000000250028002B00000000002300B2
:1003B00026002900040404040404040402020202C6
:1003C0000202030303030303010204081020408018
:1003D0000102040810200102040810200000000798
:1003E00000020100000304060000000000000000FD
:1003F000B908B20811241FBECFEFD8E0DEBFCDBFD1
:1004000012E0A0E0B1E0E0EDFAE202C005900D924A
:10041000AC34B107D9F716E0ACE4B2E001C01D92EC
:10042000A631B107E1F713E0C2EFD3E004C0229791
:10043000FE010E942015C03FD107C9F70E9413108A
:100440000C945B150C940000A0E0B0E0EAE2F2E04E
:100450000C942C15EC01A880B980CA80DB80A11413
:10046000B104C104D10441F484E2A82E89EDB82E70
:100470008BE5C82E87E0D82EC601B5012DE133EFFC
:1004800041E050E00E94EF1427EA31E440E050E000
:100490000E949B147B018C01C601B5012DE133EF55
:1004A00041E050E00E94EF14CA01B9012CEE34EF94
:1004B0004FEF5FEF0E949B146E0D7F1D801F911FF9
:1004C00097FF04C0615070408040904868837983F2
:1004D0008A839B839B01AC015F77B901CA01CDB7C9
:1004E000DEB7EAE00C9448150E942402089582E2E7
:1004F00092E00E94240208956093220270932302E6
:1005000080932402909325020895FB01DC01019061
:100510000D920020E1F70895FC016A30710534F472
:10052000E60FF71FE457FF4F81E080830895FC0139
:100530006A3071052CF4E60FF71FE457FF4F108265
:100540000895EF92FF920F931F93CF93DF937C0157
:100550008AEA90E0E80EF91EF70180819181E6E5D4
:10056000FFEFEE0EFF1E0A970CF048C0F701B89699
:10057000C0E0D0E080819181892B09F449C02196A7
:100580003296CA30D105B1F739C0FE013F96EE0F61
:10059000FF1FEE0FFF1FEE0DFF1D4083518362838F
:1005A0007383FE017496EE0FFF1FEE0DFF1D318366
:1005B0002083FE01F296EE0FFF1FEE0DFF1D11834B
:1005C0000083F701EC0FFD1FE457FF4F81E08083AC
:1005D0000E946A10FE01EE0FFF1FEE0FFF1FEE0DCF
:1005E000FF1D6083718382839383F701E655FF4F7C
:1005F0008081918101969183808302C0CFEFDFEFEC
:10060000CE01DF91CF911F910F91FF90EF90089550
:100610002115310509F0B9CFF1CF0F931F9301E0F8
:1006200010E00E94A1021F910F9108950F931F9354
:1006300000E010E00E94A1021F910F9108952F92F7
:100640003F924F925F926F927F928F929F92AF9262
:10065000BF92CF92DF92EF92FF920F931F93CF93AF
:10066000DF936C010E946A101B012C01F601EA560F
:10067000FF4FB6013CE8632E712C6C0C7D1CE6012B
:10068000CC59DF4F4301AA24BB2411821082EE56BD
:10069000F04080819181E259FF4F892B09F440C0DD
:1006A000DB01ED90FD900D911C911397DC962D913F
:1006B0003D914D915C91DF97D201C1018E199F0947
:1006C000A00BB10B82179307A407B50748F12E0DB5
:1006D0003F1D401F511FDB012D933D934D935C93B4
:1006E0001397D4018C918823D9F028813981211561
:1006F000310519F441E050E011C08C899D898217C1
:10070000930774F4A1E0B0E0B183A08301969D8BC0
:100710008C8B8217930724F042E050E05183408392
:100720000894A11CB11C32966C5F7F4F0894811C09
:10073000911C22965AE0A516B10409F0A6CFE60155
:10074000A8962CE3E22EF12CEC0CFD1C8601085837
:100750001F4F8AEA90E0C80ED91E5701D8015E9655
:100760008D919C915F978130910519F0029719F551
:1007700004C0E881F98109951EC0E881F9810995D5
:10078000F6012081318121153105A9F088819981F7
:10079000892B89F019821882D3011C92F7011082EB
:1007A000118212821382D8011D921C922150304076
:1007B000F6013183208322960894611C711C44E069
:1007C00050E0E40EF51E0E5F1F4FCA15DB0531F633
:1007D000DF91CF911F910F91FF90EF90DF90CF901D
:1007E000BF90AF909F908F907F906F905F904F9051
:1007F0003F902F9008950F931F93CF93DF93EC01B9
:100800000E946A10AE0144575F4FFE01B8968E01F8
:1008100020E030E0DA011D92AD0111821082D80192
:100820006D937D938D939D938D01E05BFF4F1182BE
:1008300010822F5F3F4FEE54F0402A30310551F7C0
:10084000C655DF4F19821882DF91CF911F910F910A
:100850000895FC01E058FF4F80E28193819311924B
:100860001192119211921192119211921192119270
:100870001192119211921192119211921192119260
:10088000119211921192119211921182108234964A
:100890001192119211921182108235971182108259
:1008A00008950F931F93CF93DF93EC019B018A016F
:1008B000FC01EE56FF4F80819181019709F46EC0D3
:1008C000C456DF4F199283E090E09183808369934F
:1008D000799359834883CF59D040CB016AE070E0C7
:1008E0000E94BA14FB01C9016AE070E00E94BA14C8
:1008F0009C01DE01A658BF4F80E090E0AF01440F9D
:10090000551F4E0F5F1FB901660F771F620F731FD0
:10091000FC01E40FF51FE858FC4FE4911596EC93A9
:100920001597FC01E60FF71FE858FC4FE491EC9394
:10093000019611978330910559F7C558DF4F1992E9
:100940001882CC57D040C80123E0880F991F2A9500
:10095000E1F76CE97FEF0E94BA14695F7F4FFE01F7
:10096000E158FF4F27E030E006C08081836080833C
:1009700021503040319762177307BCF328583F4F1E
:10098000FE01E20FF31F2857304006C080818C7FA4
:10099000808321503040319737FFF8CFDF91CF91DE
:1009A0001F910F910895FC01AB01E156FF4F718338
:1009B00060833D9780819181E259F040039749F42B
:1009C000E356FF4F60817181ED59F040CF010E94E5
:1009D00051040895CF93DF93EC01CE56DF4F888109
:1009E0009981C259D0408130910501F5DE01A058AE
:1009F000BF4FCA56DF4F28813981C659D040FE010A
:100A0000E20FF31F80818C93F9013196C857DF4FB5
:100A100088819981C858D040DE01AF57BF4FE81791
:100A2000F90744F5EC0FFD1F808125C0029751F5B1
:100A3000C856DF4F28813981C859D040DE01A058FF
:100A4000BF4F37FD1AC0FE01E20FF31F84AD8C9338
:100A5000F9013196C657DF4F88819981CA58D04035
:100A6000DE01AF57BF4FE817F90724F4EC0FFD1F65
:100A700084AD01C080E28C9305C080E28C93CF5797
:100A8000DF4F8883DF91CF9108951F93CF93DF933A
:100A9000DC01AE56BF4F8D919C911197A259B04089
:100AA000833091050CF05FC08130910541F4AE5761
:100AB000BF4F2D913C911197A258B0400EC00297A4
:100AC00029F020E030E040E050E008C0AC57BF4FD4
:100AD0002D913C911197A458B040A901ED01C15846
:100AE000DF4F87E090E0BD0160587F4F16C0FB01EB
:100AF0001081E12FFF27E7FDF095B09713E0EE0F8F
:100B0000FF1F1A95E1F7E20FF31FE859FF4FE49139
:100B1000E8832F5F3F4F01972197841795073CF794
:100B200088589F4FED01C80FD91F8857904020E08B
:100B300030E0AF57BF4F14C0EC91FF27E7FDF095B1
:100B4000B09773E0EE0FFF1F7A95E1F7E20FF31F06
:100B5000E859FF4FE491E8832F5F3F4F01972197BA
:100B600097FFEACF0CC0A356BF4F6D917D914D9179
:100B70005C911197AF59B040CD010E945104DF91B3
:100B8000CF911F9108950F931F938C0104561F4F0F
:100B9000F80110820A501040F801118210820251AF
:100BA0001040F80161938F0180E28083015810406A
:100BB000C8010E94EA04C8010E9445051F910F91D7
:100BC0000895FC01E057FF4F718360830895CF9330
:100BD000DF93EC01BC016E567F4FFB0140815181D8
:100BE0004230510509F444C0FC01EE57FF4F8081AB
:100BF000918101969183808308970CF468C01182DB
:100C00001082DE01AA56BF4F8D919C9111970196DB
:100C100011969C938E93C857DF4F28813981C8580D
:100C2000D0408217930704F1FE01E257FF4F208165
:100C300031812F5F3F4F318320831D921C924130C1
:100C4000510591F4C457DF4F88819981CC58D04029
:100C5000281739074CF0CC56DF4F88819981C45949
:100C6000D040FB0191838083CE010E94EA042FC013
:100C7000C656DF4F8881CA59D04080FD28C0FE018A
:100C8000EC57FF4F80819181019691838083089773
:100C9000C4F011821082FE01E856FF4F80819181DD
:100CA000019691838083C657DF4F28813981CA58C6
:100CB000D0408217930714F011821082CE010E9457
:100CC000EA04C656DF4F19821882CA59D040C4566A
:100CD000DF4F8881CC59D040882319F0CE010E9483
:100CE0004505FE01E656FF4F808191810196918373
:100CF0008083DF91CF910895FB01E80FF91FE85839
:100D0000FF4F80810895EF92FF920F931F938C0104
:100D10007A0104561F4F81E0D8018C930A5010408D
:100D200082E090E0F8019183808302591040C8016D
:100D3000CC960E94850206571F4F0894E108F108DF
:100D4000D801ED92FC920A581040F801E856FF4F86
:100D500000571F4FD8018D919C91005910409095DC
:100D600081959F4F91838083C8010E94EA04C80146
:100D70000E9445051F910F91FF90EF9008950F93EA
:100D80001F93CF93DF93EC018A01CE56DF4F88810A
:100D90009981C259D0408130910531F0CC56DF4F56
:100DA00099838883C459D040CE56DF4F81E090E0CC
:100DB000998388832497198218823A932A9360969C
:100DC00081E08883CC59D040CE010E948502C8576B
:100DD000DF4F01501040198308832E961982188224
:100DE000C659D040CE010E94EA04CE010E944505BA
:100DF000DF91CF911F910F910895FB01EE0FFF1F1F
:100E0000E60FF71FEE0FFF1FEE0FFF1FE80FF91F92
:100E1000858196810895FB01EE0FFF1FE60FF71FF6
:100E2000EE0FFF1FEE0FFF1FE80FF91F8381948164
:100E30000895DC01FC0120E030E044E650E005C00C
:100E4000568345832F5F3F4F3C968D919C91119720
:100E500028173907ACF30895FB01EE0FFF1FE60FCB
:100E6000F71FEE0FFF1FEE0FFF1FE80FF91F838123
:100E700094810196948383830895CF93DF93EB014C
:100E8000CC0FDD1FC60FD71FCC0FDD1FCC0FDD1F12
:100E9000C80FD91F8D819E818436910511F080E0A5
:100EA00009C00E946A106F83788789879A871E829B
:100EB0001D8281E0DF91CF910895AF92BF92CF92D2
:100EC000DF92EF92FF920F931F93CF93DF93FC017A
:100ED0007B0171836083EC0100E010E044E6A42E06
:100EE000B12C33E0C32ED12C11C00E946A101A829B
:100EF0001C821B82BE82AD826F83788789879A8726
:100F0000DC86CB861D860F5F1F4F2C960E151F05A6
:100F100064F3DF91CF911F910F91FF90EF90DF90DD
:100F2000CF90BF90AF9008956F927F928F929F92D3
:100F3000AF92BF92CF92DF92EF92FF920F931F93E7
:100F4000CF93DF93182F092F0E946A104B015C0189
:100F5000212F302FC901EC01CC24DD2474E6672E4B
:100F6000712C8D819E81843691057CF58F819885C9
:100F7000A985BA85A5019401281B390B4A0B5B0B87
:100F8000CA01B9010E9442137B018C0120E030E4C8
:100F90004CE156E40E94341418161CF47E826D82D3
:100FA00014C0C801B70120E030E44CE156E40E94CF
:100FB000A71220E030E048EC52E40E9438140E946E
:100FC00094120E940F137E836D830894C11CD11C60
:100FD0002C9638E0C316D10421F6DF91CF911F91F2
:100FE0000F91FF90EF90DF90CF90BF90AF909F90C8
:100FF0008F907F906F900895FC0180819181009780
:1010000011F00E94C00F8DE061E00E946C118DE034
:1010100061E00E94AB116AEF70E080E090E00E9416
:1010200078108DE060E00E94AB116AEF70E080E024
:1010300090E00E947810EBCFCF93DF93EC011D82FC
:101040001C821F821E82198618861B861A861982A8
:10105000188284E090E00E944F0E9B838A83009761
:1010600029F4CE0160E071E00E94FC0782E090E08C
:101070009D838C83DF91CF9108958130910579F51F
:101080006F5F7F4F09F06DC087E592E00E941C08FA
:1010900083E692E00E941C088091440290914502F0
:1010A0009093700280936F0287E792E00E94290478
:1010B00088E193E00E94290489EB93E00E942904CF
:1010C0008AE594E00E9429048BEF94E064E070E0EC
:1010D0000E945D078DE595E00E94FB030895892B32
:1010E00009F03FC06F5F7F4FE1F5809165029091FD
:1010F00066020E94EC0E1092660210926502109237
:1011000064021092630210926802109267021092B9
:101110006A021092690210926C0210926B02109295
:101120006E0210926D028091590290915A020E94B3
:10113000EC0E10925A02109259021092580210921C
:10114000570210925C0210925B0210925E021092A3
:101150005D021092600210925F0210926202109281
:101160006102089580E090E06FEF7FEF0E943D08FC
:10117000089581E090E06FEF7FEF0E943D080895B1
:10118000AF92BF92CF92DF92EF92FF920F931F9395
:10119000CF93DF93EC016B011616170624F060E382
:1011A00071E00E94FC07C601880F991F0E944F0E34
:1011B000F82EE92E082F192F0115110529F4CE015B
:1011C00065E671E00E94FC07AE80BF808F2D9E2DEA
:1011D0009C01790120E030E014C0888599856C81FC
:1011E0007D81820F931F0E94BA14880F991FE80F08
:1011F000F91F80819181F701819391937F012F5F86
:101200003F4FEA81FB812A153B053CF3CF010E9449
:10121000EC0E1B830A83198618868E819F819B871B
:101220008A87DD82CC82DF91CF911F910F91FF9051
:10123000EF90DF90CF90BF90AF900895CF92DF9264
:10124000EF92FF920F931F93CF93DF937C018B015B
:10125000C0E0D0E061EAC62ED12CCC9DC001CD9D6E
:10126000900DDC9D900D112489589D4FB701A80168
:1012700021E030E00E94BF062196C430D10569F715
:10128000DF91CF911F910F91FF90EF90DF90CF9062
:1012900008950F931F93CF93DF9380915D029091F8
:1012A0005E02892B31F487E592E06FE971E00E94DC
:1012B000FC0780915F02909160029C01220F331F16
:1012C000E0915902F0915A02E20FF31FC081D181DF
:1012D00001969093600280935F0220915D023091AD
:1012E0005E022150304030935E0220935D02E09117
:1012F0005B02F0915C028E179F0721F4109260024E
:1013000010925F022115310589F0CF0164E070E091
:101310000E94BA14621773074CF0CF0162E070E0CC
:101320000E94BA1487E592E00E94C008FE01EE0F09
:10133000FF1FE159FD4F809142029091430291833A
:1013400080838BEF94E0BE010E940B078C018BEF32
:1013500094E0BE010E94FD06AC0181EA90E09C0190
:10136000C29FC001C39F900DD29F900D1124895838
:101370009D4FB8010E945104DF91CF911F910F91B1
:101380000895EF92FF920F931F93CF93DF93C0E0E6
:10139000D0E0F1EAEF2EF12C8BEF94E0BE010E9439
:1013A0000B078C018BEF94E0BE010E94FD06AC019F
:1013B000CE9DC001CF9D900DDE9D900D11248958CA
:1013C0009D4FB8010E9451042196C430D10521F7E8
:1013D000DF91CF911F910F91FF90EF9008950E94A0
:1013E000C10981E08093500208950E94EF090E9494
:1013F000C109089580912E0260E070E00E940C11F6
:1014000008950F931F93DF93CF93CDB7DEB72A973D
:101410000FB6F894DEBF0FBECDBF8C0183E090E025
:10142000909352028093510210925002F801EE0FF5
:10143000FF1FE159FD4F80913E0290913F02918341
:1014400080830E94FA098BEF94E0B8010E942C0778
:101450008BEF94E00E9419070E94C109DE011196EA
:10146000E1EDF1E089E001900D928150E1F7802FEC
:101470008F5C898780E28A87CE0101966AE070E0FE
:101480000E941E098DE595E048E853E160E070E0B8
:101490002FEE39E00E940D032A960FB6F894DEBFB6
:1014A0000FBECDBFCF91DF911F910F910895809115
:1014B000510290915202019729F580913802909142
:1014C00039028130910549F48091300261E00E9437
:1014D000AB118091320260E00BC08F5F9F4F51F4DF
:1014E0008091300260E00E94AB118091320261E095
:1014F0000E94AB1160914C0270914D0280912E02BE
:101500000E940C1108950F931F930DE515E0609153
:10151000530270915402C8010E94970260915502D3
:1015200070915602C8010E94970260913602709134
:10153000370280912E020E940C111F910F91089585
:101540002F923F924F925F926F927F928F929F92D3
:10155000AF92BF92DF92EF92FF920F931F93DF93B0
:10156000CF93CDB7DEB768970FB6F894DEBF0FBE46
:10157000CDBF80915002882309F463C180912A0273
:1015800061E00E94AB1180912A0260E00E94AB11E1
:101590003FE6E32E32E0F32EAA24BB2421E0222EE4
:1015A000312C91EA492E512C82E0682E712C0BE0EF
:1015B000802E912C8C0E9D1E40C180912C020E9489
:1015C000FF11892B41F0C101002E02C0880F991F25
:1015D0000A94E2F7D82A8091260261E00E94AB11BA
:1015E0008091260260E00E94AB110F5F1F4F083010
:1015F000110519F74D2D50E0D1FC59C0F70120819C
:10160000318180913E0290913F022817390709F0FD
:101610004EC08091510290915202019709F047C04B
:101620008BEF94E0B5010E943D07882309F409C1BE
:10163000109250020E94830A40913A0250913B025C
:10164000662757FD6095762F8DE595E02FEE39E002
:101650000E940D0340913A0250913B02662757FDCC
:101660006095762F8DE595E029E33CE00E940D031F
:10167000DE011196EBEDF1E08AE001900D928150D0
:10168000E1F781EA90E09C01A29EC001A39E900D2B
:10169000B29E900D112489589D4FBE016F5F7F4F00
:1016A0004AE050E021E030E00E94BF06CAC042FD9F
:1016B0001AC07092520260925102D401E5EEF1E03C
:1016C0008EE001900D928150E1F7C4016EE070E070
:1016D0000E941E098DE595E044EC59E060E070E061
:1016E00028E53CE078C09A012170307040FF81C04D
:1016F0008091510290915202019709F07AC0F7014E
:101700002081318180914002909141022817390750
:1017100009F488C080913E0290913F022817390752
:1017200009F05CC0A49CC001A59C900DB49C900DD8
:10173000112489589D4F6EE70E94C30560915D0298
:1017400070915E0280915B0290915C02681779074C
:1017500031F4660F771F87E592E00E94C008209160
:10176000610230916202C901880F991FE09159020C
:10177000F0915A02E80FF91FB182A0822F5F3F4F0C
:10178000309362022093610280915B0290915C022F
:101790002817390721F41092620210926102809199
:1017A0005D0290915E02019690935E0280935D02CD
:1017B0008091400290914102F70191838083409192
:1017C0003C0250913D02662757FD6095762F8DE5CE
:1017D00095E029E439E00E940D0324C08091420283
:1017E0009091430228173907E9F4C5010E94010AC4
:1017F00019C08091510290915202232B51F48130F3
:10180000910511F0029771F480913E0290913F0290
:1018100006C0029739F48091440290914502F70185
:10182000918380830894A11CB11C22E030E0E20E79
:10183000F31E34E0A316B10421F000E010E0DD2433
:10184000BCCE68960FB6F894DEBF0FBECDBFCF9169
:10185000DF911F910F91FF90EF90DF90BF90AF90BD
:101860009F908F907F906F905F904F903F902F90C0
:1018700008950F931F9380913402909135029093B5
:101880004D0280934C020E94570A0DE515E06091CD
:10189000530270915402C8010E948C02609155025B
:1018A00070915602C8010E948C021F910F910895F9
:1018B00081E090E090935202809351020E94390C93
:1018C00008958F929F92AF92BF92DF92EF92FF9214
:1018D0000F931F93CF93DF93EE24FF2451E0852EC7
:1018E000912C41EAA42EB12C8091260260E00E9446
:1018F000AB118091280260E00E94AB1180912A0216
:1019000060E00E94AB11C4010E2C02C0880F991F29
:101910000A94E2F7D82EC3E0D0E0809128026091CB
:10192000260240E02D2D0E945212109128020091B3
:101930002602CA9DC001CB9D900DDA9D900D112409
:1019400089589D4FB7010E947C06282F812F602F58
:1019500040E00E94521221978FEFCF3FD807E9F65F
:1019600080912A0261E00E94AB110894E11CF11CF5
:1019700088E0E816F10409F0B7CFDF91CF911F910D
:101980000F91FF90EF90DF90BF90AF909F908F905E
:101990000895CF93DF938091380290913902019797
:1019A00009F044C060E070E080E090E024E630E0C0
:1019B00040E050E00E94F50F613571058105910509
:1019C000ACF18FEF9FEF909339028093380268EE6D
:1019D00073E080E090E024EC39E040E050E00E94C9
:1019E000F50FAB01BC018DE595E029EC3CE00E94D0
:1019F0000D0317C060E070E080E090E024E630E086
:101A000040E050E00E94F50F6734710581059105B3
:101A1000A4F0D0933902C093380210924D02109274
:101A20004C020E94570ADF91CF910895C09138026D
:101A3000D0913902C130D105E9F281E090E0909374
:101A4000390280933802EDCF68E770E080E090E0E3
:101A50002CED30E040E050E00E94F50F70934D0215
:101A600060934C020E94570A08958DE595E00E940C
:101A70001F030E94610C80914E0290914F020597C6
:101A800031F40E94A00A10924F0210924E028091EF
:101A90004E0290914F02019690934F0280934E0216
:101AA00008950F931F93CF93DF93C0E0D0E001EA36
:101AB00010E0C09FC001C19F900DD09F900D1124D8
:101AC00089589D4F0E94E7052196C430D10589F7BA
:101AD000DF91CF911F910F9108950F931F93CF9393
:101AE000DF938BEF94E00E949407C0E0D0E001EA1E
:101AF00010E08BEF94E0BE010E94FD06BC01C09F88
:101B0000C001C19F900DD09F900D112489589D4F09
:101B10000E94D3042196C430D10559F7DF91CF91AB
:101B20001F910F910895AF92BF92CF92DF92EF92E3
:101B3000FF920F931F93DF93CF93CDB7DEB7AF978D
:101B40000FB6F894DEBF0FBECDBF8091260261E0D4
:101B50000E946C118091280261E00E946C118091BA
:101B60002A0261E00E946C1180912E0261E00E94C5
:101B70006C118091300261E00E946C118091320200
:101B800061E00E946C1180912C0260E00E946C1157
:101B9000DE011196E3EFF1E08FE201900D928150AA
:101BA000E1F7EE24FF2461EAA62EB12C6E01089421
:101BB000C11CD11CEA9C8001EB9C100DFA9C100DFD
:101BC000112409581D4FC801B7010E94E105C80141
:101BD000B6014FE250E00E9483060894E11CF11C1C
:101BE00084E0E816F10431F780912E0260E070E0A5
:101BF0000E940C118091300261E00E94AB11809133
:101C0000320260E00E94AB118DE595E04EE150E0BC
:101C100060E070E021E53DE00E9416038DE595E06F
:101C20004AEF50E060E070E02DE63DE00E941603D0
:101C30008DE595E048E052E560E070E025EF39E0A1
:101C40000E940D038DE595E040ED57E060E070E007
:101C500024E23DE00E9416039093540280935302C5
:101C60008DE595E048EB5BE060E070E029EC3CE05E
:101C70000E9416039093560280935502AF960FB6BA
:101C8000F894DEBF0FBECDBFCF91DF911F910F91B2
:101C9000FF90EF90DF90CF90BF90AF9008950F939B
:101CA0001F93CF93DF93BC018230910510F462E063
:101CB00070E0E0911406F0911506A0E0B0E040E07D
:101CC00050E024C08081918186179707D0F0861755
:101CD000970771F482819381109729F013969C9352
:101CE0008E9312972CC0909315068093140627C0EC
:101CF0004115510519F08417950718F4EF018D016E
:101D0000AC01DF01828193819C01F9013097D1F60A
:101D100041155105F9F0CA01861B970B84309105D6
:101D200080F48A819B810115110521F0F8019383CC
:101D3000828304C09093150680931406FE013296A8
:101D400045C0FE01E80FF91F6193719302979983D3
:101D500088833CC08091120690911306892B41F430
:101D60008091480290914902909313068093120645
:101D700040914A0250914B024115510541F44DB733
:101D80005EB78091460290914702481B590B209103
:101D900012063091130624173507B0F4CA01821BCE
:101DA000930B8617970780F0AB014E5F5F4F841748
:101DB000950750F0420F531F50931306409312069D
:101DC000F9016193719302C0E0E0F0E0CF01DF918F
:101DD000CF911F910F910895CF93DF939C010097AE
:101DE00009F48FC0EC0122971B821A8260911406BD
:101DF000709115066115710581F488819981820FB2
:101E0000931F20911206309113062817390739F5D0
:101E1000D0931306C093120674C0DB0140E050E07B
:101E2000AC17BD0708F1BB83AA83FE012191319154
:101E3000E20FF31FAE17BF0779F48D919C911197B4
:101E4000280F391F2E5F3F4F3983288312968D91BB
:101E50009C9113979B838A834115510571F4D0930C
:101E60001506C09314064DC012968D919C91139740
:101E7000AD01009711F0DC01D3CFDA011396DC93AA
:101E8000CE931297FA0121913191E20FF31FCE17F1
:101E9000DF0769F488819981280F391F2E5F3F4F32
:101EA000FA01318320838A819B8193838283E0E0DE
:101EB000F0E0DB0112968D919C911397009719F039
:101EC000BC01FD01F6CFAB014E5F5F4FDB018D9191
:101ED0009C91840F951F20911206309113062817AC
:101EE000390779F4309729F41092150610921406E8
:101EF00002C0138212824250504050931306409306
:101F00001206DF91CF910895EF92FF920F931F93E6
:101F10008C01DC01ED91FC910190F081E02D6DE0F0
:101F200009957C01D801ED91FC910190F081E02DA3
:101F3000C8016AE009959C012E0D3F1DC9011F9142
:101F40000F91FF90EF900895CF93DF93EC0161150F
:101F5000710519F420E030E00FC0DB010D90002086
:101F6000E9F71197A61BB70BE881F9810280F3818D
:101F7000E02DAD0109959C01C901DF91CF91089534
:101F8000EF92FF920F931F937C010E94A40F8C018C
:101F9000C7010E94840F080F191FC8011F910F91DC
:101FA000FF90EF900895EF92FF920F931F937B01A4
:101FB0008C01611571058105910529F420E030E05F
:101FC00040E050E00BC00E947702A80197010E94F8
:101FD000EF14AC01CB01DA019C01AD01B901CA01DA
:101FE0001F910F91FF90EF900895EF92FF920F9342
:101FF0001F937B018C01621773078407950764F4B4
:10200000261B370B480B590BCA01B9010E94D30F8D
:10201000E60EF71E081F191FB701C8011F910F9187
:10202000FF90EF900895CF93DF930E94D1100E940C
:10203000930DC0E0D0E00E94350D2097E1F30E949F
:102040000000F9CF1F920F920FB60F9211242F9319
:102050003F938F939F93AF93BF9380910D06909181
:102060000E06A0910F06B091100630911106019650
:10207000A11DB11D232F2D5F2D3720F02D57019667
:10208000A11DB11D2093110680930D0690930E069D
:10209000A0930F06B09310068091090690910A064E
:1020A000A0910B06B0910C060196A11DB11D809365
:1020B000090690930A06A0930B06B0930C06BF91F5
:1020C000AF919F918F913F912F910F900FBE0F90E5
:1020D0001F9018958FB7F89420910D0630910E0639
:1020E00040910F06509110068FBFB901CA010895A3
:1020F0009B01AC017FB7F8948091090690910A0684
:10210000A0910B06B0910C0666B5A89B05C06F3F69
:1021100019F00196A11DB11D7FBFBA2FA92F982FCD
:102120008827860F911DA11DB11D62E0880F991FA0
:10213000AA1FBB1F6A95D1F7BC012DC0FFB7F89449
:102140008091090690910A06A0910B06B0910C06A9
:10215000E6B5A89B05C0EF3F19F00196A11DB11D82
:10216000FFBFBA2FA92F982F88278E0F911DA11D71
:10217000B11DE2E0880F991FAA1FBB1FEA95D1F796
:10218000861B970B885E9340C8F221503040404038
:10219000504068517C4F211531054105510571F6BC
:1021A0000895789484B5826084BD84B5816084BDCF
:1021B00085B5826085BD85B5816085BDEEE6F0E0C0
:1021C000808181608083E1E8F0E01082808182601C
:1021D0008083808181608083E0E8F0E0808181609D
:1021E0008083E1EBF0E0808184608083E0EBF0E0CD
:1021F000808181608083EAE7F0E080818460808371
:10220000808182608083808181608083808180681A
:1022100080831092C10008951F93CF93DF93182FEE
:10222000EB0161E00E946C11209709F44AC0CF3F96
:10223000D10509F449C0E12FF0E0E452FC4F84914C
:102240008330C1F0843028F4813051F08230B1F510
:102250000CC0863019F1873049F1843079F514C00B
:1022600084B5806884BDC7BD33C084B5806284BD39
:10227000C8BD2EC080918000806880938000D0937C
:102280008900C093880024C0809180008062809380
:102290008000D0938B00C0938A001AC08091B00058
:1022A00080688093B000C093B30012C08091B000EA
:1022B00080628093B000C093B4000AC0C038D105DA
:1022C0001CF4812F60E002C0812F61E00E94AB11FD
:1022D000DF91CF911F910895CF93DF93482F50E066
:1022E000CA0188539C4FFC0134914C545C4FFA0155
:1022F0008491882369F190E0880F991FFC01EA56C8
:10230000FC4FA591B491FC01E056FC4FC591D491CE
:10231000662351F42FB7F8948C91932F90958923CD
:102320008C93888189230BC0623061F42FB7F894B5
:102330008C91932F909589238C938881832B88830C
:102340002FBF06C09FB7F8948C91832B8C939FBFAF
:10235000DF91CF910895482F50E0CA0184529C4FDD
:10236000FC012491CA0188539C4FFC0194914C5468
:102370005C4FFA013491332309F440C0222351F118
:10238000233071F0243028F42130A1F0223011F5EF
:1023900014C02630B1F02730C1F02430D9F404C085
:1023A000809180008F7703C0809180008F7D809323
:1023B000800010C084B58F7702C084B58F7D84BD46
:1023C00009C08091B0008F7703C08091B0008F7DED
:1023D0008093B000E32FF0E0EE0FFF1FE056FC4FBC
:1023E000A591B4912FB7F894662321F48C91909520
:1023F000892302C08C91892B8C932FBF0895682F5D
:1024000070E0CB0184529C4FFC012491CB01885396
:102410009C4FFC0144916C547C4FFB019491992397
:1024200019F420E030E03CC0222351F1233071F058
:10243000243028F42130A1F0223011F514C02630C8
:10244000B1F02730C1F02430D9F404C0809180006D
:102450008F7703C0809180008F7D8093800010C0B3
:1024600084B58F7702C084B58F7D84BD09C080910B
:10247000B0008F7703C08091B0008F7D8093B00053
:10248000892F90E0880F991F86559C4FFC01A591DC
:10249000B4918C9120E030E0842311F021E030E011
:1024A000C9010895BF92CF92DF92EF92FF920F93EE
:1024B0001F93CF93DF93E82EF62EB42EC7E0D0E023
:1024C000022F10E087E0C82ED12CBB2059F4B601B2
:1024D0006C1B7D0BC80102C0959587956A95E2F744
:1024E000BC0107C0B8010C2E02C0759567950A940F
:1024F000E2F761708E2D0E94AB118F2D61E00E947A
:10250000AB118F2D60E00E94AB1121979FEFCF3F61
:10251000D907D9F6DF91CF911F910F91FF90EF90DE
:10252000DF90CF90BF90089581D180F09F3740F425
:1025300091110EF493C160E070E080E89FE308958C
:1025400026F01B16611D711D811D01C11BC10CD020
:102550003AC132D140F029D130F021F45F3F19F077
:10256000F0C051117BC11EC13FD198F39923C9F32B
:102570005523B1F3951B550BBB27AA276217730789
:10258000840738F09F5F5F4F220F331F441FAA1F3D
:10259000A9F333D00E2E3AF0E0E830D091505040FD
:1025A000E695001CCAF729D0FE2F27D0660F771FAB
:1025B000881FBB1F261737074807AB07B0E809F08D
:1025C000BB0B802DBF01FF2793585F4F2AF09E3F22
:1025D000510568F0B6C042C15F3FECF3983EDCF3B2
:1025E000869577956795B795F7959F5FC9F7880F9B
:1025F000911D9695879597F90895E1E0660F771FED
:10260000881FBB1F621773078407BA0720F0621B7D
:10261000730B840BBA0BEE1F88F7E095089504D076
:102620006894B1111BC10895E7D088F09F5790F0CE
:10263000B92F9927B751A0F0D1F0660F771F881FE7
:10264000991F1AF0BA95C9F712C0B13081F005D1BF
:10265000B1E0089502C1672F782F8827B85F39F05D
:10266000B93FCCF3869577956795B395D9F73EF446
:1026700090958095709561957F4F8F4F9F4F0895EE
:10268000E89409C097FB3EF490958095709561950C
:102690007F4F8F4F9F4F9923A9F0F92F96E9BB27C2
:1026A0009395F695879577956795B795F111F8CF3E
:1026B000FAF4BB0F11F460FF1BC06F5F7F4F8F4FA9
:1026C0009F4F16C0882311F096E911C0772321F09F
:1026D0009EE8872F762F05C0662371F096E8862F37
:1026E00070E060E02AF09A95660F771F881FDAF78E
:1026F000880F9695879597F90895990F0008550FBB
:10270000AA0BE0E8FEEF16161706E807F907C0F077
:1027100012161306E407F50798F0621B730B840B7F
:10272000950B39F40A2661F0232B242B252B21F459
:1027300008950A2609F4A140A6958FEF811D811DF9
:10274000089597F99F6780E870E060E00895882316
:1027500071F4772321F09850872B762F07C06623DA
:1027600011F499270DC09051862B70E060E02AF09B
:102770009A95660F771F881FDAF7880F96958795C9
:1027800097F908959F3F49F0915028F486957795E1
:102790006795B7959F5F80389F4F880F969587956F
:1027A00097F908959FEF80EC089500240A94161677
:1027B000170618060906089500240A94121613062F
:1027C000140605060895092E0394000C11F48823BD
:1027D00052F0BB0F40F4BF2B11F460FF04C06F5FD9
:1027E0007F4F8F4F9F4F089557FD9058440F551FAF
:1027F00059F05F3F71F04795880F97FB991F61F083
:102800009F3F79F087950895121613061406551FF9
:10281000F2CF4695F1DF08C0161617061806991F65
:10282000F1CF86957105610508940895E5DFA0F064
:10283000BEE7B91788F4BB279F3860F41616B11DA0
:10284000672F782F8827985FF7CF869577956795BC
:10285000B11D93959639C8F30895E894BB27662770
:102860007727CB0197F9089548DF08F48FEF089593
:102870000BD0A9CF9ADF28F09FDF18F0952309F03D
:1028800060CF90CF1124EACFAFDFA0F3959FD1F3B3
:10289000950F50E0551F629FF001729FBB27F00D0E
:1028A000B11D639FAA27F00DB11DAA1F649F662763
:1028B000B00DA11D661F829F2227B00DA11D621FB2
:1028C000739FB00DA11D621F839FA00D611D221F6C
:1028D000749F3327A00D611D231F849F600D211D50
:1028E000822F762F6A2F11249F5750408AF0E1F0F3
:1028F00088234AF0EE0FFF1FBB1F661F771F881F3C
:1029000091505040A9F79E3F510570F01ACFA6CFC5
:102910005F3FECF3983EDCF3869577956795B79526
:10292000F795E7959F5FC1F7FE2B880F911D969550
:10293000879597F90895629FD001739FF001829F58
:10294000E00DF11D649FE00DF11D929FF00D839F3E
:10295000F00D749FF00D659FF00D9927729FB00DDB
:10296000E11DF91F639FB00DE11DF91FBD01CF01EE
:102970001124089597FB092E07260AD077FD04D06D
:1029800049D006D000201AF4709561957F4F0895C4
:10299000F6F7909581959F4F0895A1E21A2EAA1BF4
:1029A000BB1BFD010DC0AA1FBB1FEE1FFF1FA217FF
:1029B000B307E407F50720F0A21BB30BE40BF50BFC
:1029C000661F771F881F991F1A9469F76095709585
:1029D000809590959B01AC01BD01CF01089597FBB7
:1029E000092E05260ED057FD04D0D7DF0AD0001CD3
:1029F00038F450954095309521953F4F4F4F5F4F9C
:102A00000895F6F790958095709561957F4F8F4F5B
:102A10009F4F0895AA1BBB1B51E107C0AA1FBB1FF4
:102A2000A617B70710F0A61BB70B881F991F5A955A
:102A3000A9F780959095BC01CD010895EE0FFF1F79
:102A40000590F491E02D09942F923F924F925F925E
:102A50006F927F928F929F92AF92BF92CF92DF92AE
:102A6000EF92FF920F931F93CF93DF93CDB7DEB713
:102A7000CA1BDB0B0FB6F894DEBF0FBECDBF0994A7
:102A80002A88398848885F846E847D848C849B84FE
:102A9000AA84B984C884DF80EE80FD800C811B810C
:102AA000AA81B981CE0FD11D0FB6F894DEBF0FBE3B
:102AB000CDBFED01089513E0C2EFD3E004C0FE01E5
:102AC0000E9420152296C43FD107C9F7F894FFCF82
:102AD00051554555453A20696E7375666669636957
:102AE000656E74206D656D6F727920746F20696EEC
:102AF000697469616C697A652071756575652E0008
:102B000051554555453A206572726F72206475655E
:102B100020746F20756E646573697261626C6520E4
:102B200073697A6520666F722071756575652073AB
:102B3000697A652E0051554555453A20696E737581
:102B40006666696369656E74206D656D6F72792064
:102B5000746F20696E697469616C697A6520746547
:102B60006D706F726172792071756575652E005197
:102B7000554555453A2063616E277420706F70206B
:102B80006974656D2066726F6D2071756575653A43
:102B900020717565756520697320656D7074792E77
:102BA000004C4F4F534552202300002021545552D2
:102BB000424F21200020474F2120474F2120474FDF
:102BC000212000203C3C4C4F4F50494E47204C4563
:102BD0004E493E3E204C6574277320676574207211
:102BE0006561647920746F206472696E6B212020A6
:102BF0002000010000000A000900080007000B0087
:102C00000C000D00C800FF000100DC05EE02010011
:0C2C100002000300040080001606000013
:00000001FF
