:100000000C94FA010C9422020C9422020C94220209
:100010000C9422020C9422020C9422020C942202D0
:100020000C9422020C9422020C9422020C942202C0
:100030000C9422020C9422020C9422020C942202B0
:100040000C941E100C9422020C9422020C94220296
:100050000C9422020C9422020C9422020C94220290
:100060000C9422020C942202000000000000000008
:100070000060FAFA6000000000E0E000E0E000004C
:1000800028FEFE28FEFE28002474D6D65C48000018
:1000900062660C18306646000C5EF2BAEC5E120026
:1000A00020E0C0000000000000387CC68200000094
:1000B0000082C67C3800000010547C38387C541014
:1000C00010107C7C101000000005070600000000E6
:1000D00010101010101000000000060600000000B4
:1000E000060C183060C080007CFE9AB2FE7C0000D6
:1000F0004242FEFE0202000046CE9A92F6660000E0
:1001000044C69292FE6C0000183868C8FEFE0800D3
:10011000E4E6A2A2BE9C00003C7ED2929E0C0000AF
:10012000C0C68E98F0E000006CFE9292FE6C00005B
:1001300060F29296FC780000000036360000000065
:10014000000537360000000010386CC68200000041
:1001500028282828282800000082C66C38100000B3
:1001600040C08A9AF06000007CFE82BABAF878003B
:100170003E7EC8C87E3E000082FEFE9292FE6C006B
:10018000387CC68282C6440082FEFE82C6FE3800EB
:1001900082FEFE92BA82C60082FEFE92B880C00045
:1001A000387CC6828ACE4E00FEFE1010FEFE000095
:1001B0000082FEFE820000000C0E0282FEFC800027
:1001C00082FEFE1038EEC60082FEFE8202060E009F
:1001D000FEFE603060FEFE00FEFE603018FEFE0097
:1001E000387CC682C67C380082FEFE9290F06000A9
:1001F00078FC848EFE7A000082FEFE989CF66200F7
:1002000064E6B29ADE4C0000C082FEFE82C00000AE
:10021000FEFE0202FEFE0000F8FC0606FCF80000EE
:10022000FEFE0C180CFEFE00C6EE381038EEC600BE
:10023000E0F21E1EF2E00000E6CE9AB2E2C68E00A8
:1002400000FEFE828200000080C06030180C0600B4
:10025000008282FEFE000000103060C0603010009E
:1002600001010101010101010000C0E020000000C6
:10027000042E2A2A3C1E020082FCFE22223E1C0082
:100280001C3E2222361400000C1E1292FCFE0200BC
:100290001C3E2A2A3A180000127EFE92C04000003E
:1002A000193D25251F3E200082FEFE10203E1E0027
:1002B0000022BEBE02000000022321BFBE000000DB
:1002C00082FEFE081C3622000082FEFE02000000B4
:1002D0003E3E3018303E1E003E3E20203E1E0000B6
:1002E0001C3E22223E1C0000213F1F25243C1800FA
:1002F000183C24251F3F2100223E1E2238180000F2
:10030000123A2A2A2E24000000207CFE222400001B
:100310003C3E02023C3E0200383C06063C380000EF
:100320003C3E060C063E3C0022361C081C362200D1
:10033000393D05053F3E000032262E3A32260000A8
:1003400010107CEE82820000000000EEEE00000043
:100350008282EE7C1010000000626404046462007B
:100360001E3E62C2623E1E000062640404646200BB
:100370000062640404646200F888F80000F8B8A819
:10038000E888A8F8E020F8E8A8B8F8A8B88080F8CD
:10039000F8A8F8E0A0F800000000240027002A00D8
:1003A00000000000250028002B00000000002300B2
:1003B00026002900040404040404040402020202C6
:1003C0000202030303030303010204081020408018
:1003D0000102040810200102040810200000000798
:1003E00000020100000304060000000000000000FD
:1003F000B108AA0811241FBECFEFD8E0DEBFCDBFE1
:1004000012E0A0E0B1E0E8ECFAE202C005900D9243
:10041000A033B107D9F717E0A0E3B2E001C01D9205
:10042000A33EB107E1F713E0C2EFD3E004C0229787
:10043000FE010E941C15C03FD107C9F70E940F1092
:100440000C9457150C940000A0E0B0E0EAE2F2E052
:100450000C942815EC01A880B980CA80DB80A11417
:10046000B104C104D10441F484E2A82E89EDB82E70
:100470008BE5C82E87E0D82EC601B5012DE133EFFC
:1004800041E050E00E94EB1427EA31E440E050E004
:100490000E9497147B018C01C601B5012DE133EF59
:1004A00041E050E00E94EB14CA01B9012CEE34EF98
:1004B0004FEF5FEF0E9497146E0D7F1D801F911FFD
:1004C00097FF04C0615070408040904868837983F2
:1004D0008A839B839B01AC015F77B901CA01CDB7C9
:1004E000DEB7EAE00C9444150E942402089585E0EA
:1004F00092E00E9424020895609305027093060220
:1005000080930702909308020895FB01DC0101909B
:100510000D920020E1F70895FC016A30710534F472
:10052000E60FF71FE457FF4F81E080830895FC0139
:100530006A3071052CF4E60FF71FE457FF4F108265
:100540000895EF92FF920F931F93CF93DF937C0157
:100550008AEA90E0E80EF91EF70180819181E6E5D4
:10056000FFEFEE0EFF1E0A970CF048C0F701B89699
:10057000C0E0D0E080819181892B09F449C02196A7
:100580003296CA30D105B1F739C0FE013F96EE0F61
:10059000FF1FEE0FFF1FEE0DFF1D4083518362838F
:1005A0007383FE017496EE0FFF1FEE0DFF1D318366
:1005B0002083FE01F296EE0FFF1FEE0DFF1D11834B
:1005C0000083F701EC0FFD1FE457FF4F81E08083AC
:1005D0000E946610FE01EE0FFF1FEE0FFF1FEE0DD3
:1005E000FF1D6083718382839383F701E655FF4F7C
:1005F0008081918101969183808302C0CFEFDFEFEC
:10060000CE01DF91CF911F910F91FF90EF90089550
:100610002115310509F0B9CFF1CF0F931F9301E0F8
:1006200010E00E94A1021F910F9108950F931F9354
:1006300000E010E00E94A1021F910F9108952F92F7
:100640003F924F925F926F927F928F929F92AF9262
:10065000BF92CF92DF92EF92FF920F931F93CF93AF
:10066000DF936C010E9466101B012C01F601EA5613
:10067000FF4FB6013CE8632E712C6C0C7D1CE6012B
:10068000CC59DF4F4301AA24BB2411821082EE56BD
:10069000F04080819181E259FF4F892B09F440C0DD
:1006A000DB01ED90FD900D911C911397DC962D913F
:1006B0003D914D915C91DF97D201C1018E199F0947
:1006C000A00BB10B82179307A407B50748F12E0DB5
:1006D0003F1D401F511FDB012D933D934D935C93B4
:1006E0001397D4018C918823D9F028813981211561
:1006F000310519F441E050E011C08C899D898217C1
:10070000930774F4A1E0B0E0B183A08301969D8BC0
:100710008C8B8217930724F042E050E05183408392
:100720000894A11CB11C32966C5F7F4F0894811C09
:10073000911C22965AE0A516B10409F0A6CFE60155
:10074000A8962CE3E22EF12CEC0CFD1C8601085837
:100750001F4F8AEA90E0C80ED91E5701D8015E9655
:100760008D919C915F978130910519F0029719F551
:1007700004C0E881F98109951EC0E881F9810995D5
:10078000F6012081318121153105A9F088819981F7
:10079000892B89F019821882D3011C92F7011082EB
:1007A000118212821382D8011D921C922150304076
:1007B000F6013183208322960894611C711C44E069
:1007C00050E0E40EF51E0E5F1F4FCA15DB0531F633
:1007D000DF91CF911F910F91FF90EF90DF90CF901D
:1007E000BF90AF909F908F907F906F905F904F9051
:1007F0003F902F9008950F931F93CF93DF93EC01B9
:100800000E946610AE0144575F4FFE01B8968E01FC
:1008100020E030E0DA011D92AD0111821082D80192
:100820006D937D938D939D938D01E05BFF4F1182BE
:1008300010822F5F3F4FEE54F0402A30310551F7C0
:10084000C655DF4F19821882DF91CF911F910F910A
:100850000895FC01E058FF4F80E28193819311924B
:100860001192119211921192119211921192119270
:100870001192119211921192119211921192119260
:10088000119211921192119211921182108234964A
:100890001192119211921182108235971182108259
:1008A00008950F931F93CF93DF93EC019B018A016F
:1008B000FC01EE56FF4F80819181019709F46EC0D3
:1008C000C456DF4F199283E090E09183808369934F
:1008D000799359834883CF59D040CB016AE070E0C7
:1008E0000E94B614FB01C9016AE070E00E94B614D0
:1008F0009C01DE01A658BF4F80E090E0AF01440F9D
:10090000551F4E0F5F1FB901660F771F620F731FD0
:10091000FC01E40FF51FE858FC4FE4911596EC93A9
:100920001597FC01E60FF71FE858FC4FE491EC9394
:10093000019611978330910559F7C558DF4F1992E9
:100940001882CC57D040C80123E0880F991F2A9500
:10095000E1F76CE97FEF0E94B614695F7F4FFE01FB
:10096000E158FF4F27E030E006C08081836080833C
:1009700021503040319762177307BCF328583F4F1E
:10098000FE01E20FF31F2857304006C080818C7FA4
:10099000808321503040319737FFF8CFDF91CF91DE
:1009A0001F910F910895FC01AB01E156FF4F718338
:1009B00060833D9780819181E259F040039749F42B
:1009C000E356FF4F60817181ED59F040CF010E94E5
:1009D00051040895CF93DF93EC01CE56DF4F888109
:1009E0009981C259D0408130910501F5DE01A058AE
:1009F000BF4FCA56DF4F28813981C659D040FE010A
:100A0000E20FF31F80818C93F9013196C857DF4FB5
:100A100088819981C858D040DE01AF57BF4FE81791
:100A2000F90744F5EC0FFD1F808125C0029751F5B1
:100A3000C856DF4F28813981C859D040DE01A058FF
:100A4000BF4F37FD1AC0FE01E20FF31F84AD8C9338
:100A5000F9013196C657DF4F88819981CA58D04035
:100A6000DE01AF57BF4FE817F90724F4EC0FFD1F65
:100A700084AD01C080E28C9305C080E28C93CF5797
:100A8000DF4F8883DF91CF9108951F93CF93DF933A
:100A9000DC01AE56BF4F8D919C911197A259B04089
:100AA000833091050CF05FC08130910541F4AE5761
:100AB000BF4F2D913C911197A258B0400EC00297A4
:100AC00029F020E030E040E050E008C0AC57BF4FD4
:100AD0002D913C911197A458B040A901ED01C15846
:100AE000DF4F87E090E0BD0160587F4F16C0FB01EB
:100AF0001081E12FFF27E7FDF095B09713E0EE0F8F
:100B0000FF1F1A95E1F7E20FF31FE859FF4FE49139
:100B1000E8832F5F3F4F01972197841795073CF794
:100B200088589F4FED01C80FD91F8857904020E08B
:100B300030E0AF57BF4F14C0EC91FF27E7FDF095B1
:100B4000B09773E0EE0FFF1F7A95E1F7E20FF31F06
:100B5000E859FF4FE491E8832F5F3F4F01972197BA
:100B600097FFEACF0CC0A356BF4F6D917D914D9179
:100B70005C911197AF59B040CD010E945104DF91B3
:100B8000CF911F9108950F931F938C0104561F4F0F
:100B9000F80110820A501040F801118210820251AF
:100BA0001040F80161938F0180E28083015810406A
:100BB000C8010E94EA04C8010E9445051F910F91D7
:100BC0000895FC01E057FF4F718360830895CF9330
:100BD000DF93EC01BC016E567F4FFB0140815181D8
:100BE0004230510509F444C0FC01EE57FF4F8081AB
:100BF000918101969183808308970CF461C01182E2
:100C00001082DE01AA56BF4F8D919C9111970196DB
:100C100011969C938E93C857DF4F28813981C8580D
:100C2000D0408217930704F1FE01E257FF4F208165
:100C300031812F5F3F4F318320831D921C924130C1
:100C4000510591F4C457DF4F88819981CC58D04029
:100C5000281739074CF0CC56DF4F88819981C45949
:100C6000D040FB0191838083CE010E94EA0428C01A
:100C7000FC01EC57FF4F8081918101969183808325
:100C80000897C4F011821082FE01E856FF4F808160
:100C90009181019691838083C657DF4F28813981E6
:100CA000CA58D0408217930714F011821082CE01E7
:100CB0000E94EA04C656DF4F19821882CA59D040F2
:100CC000C456DF4F8881CC59D040882319F0CE011B
:100CD0000E944505FE01E656FF4F808191810196F5
:100CE00091838083DF91CF910895FB01E80FF91F75
:100CF000E858FF4F80810895EF92FF920F931F9362
:100D00008C017A0104561F4F81E0D8018C930A5060
:100D1000104082E090E0F8019183808302591040F6
:100D2000C801CC960E94850206571F4F0894E1081F
:100D3000F108D801ED92FC920A581040F801E856EB
:100D4000FF4F00571F4FD8018D919C9100591040C3
:100D5000909581959F4F91838083C8010E94EA04FA
:100D6000C8010E9445051F910F91FF90EF900895D3
:100D70000F931F93CF93DF93EC018A01CE56DF4F81
:100D800088819981C259D0408130910531F0CC568B
:100D9000DF4F99838883C459D040CE56DF4F81E01E
:100DA00090E0998388832497198218823A932A9332
:100DB000609681E08883CC59D040CE010E948502A4
:100DC000C857DF4F01501040198308832E961982AF
:100DD0001882C659D040CE010E94EA04CE010E947A
:100DE0004505DF91CF911F910F910895FB01EE0F03
:100DF000FF1FE60FF71FEE0FFF1FEE0FFF1FE80F9D
:100E0000F91F858196810895FB01EE0FFF1FE60F04
:100E1000F71FEE0FFF1FEE0FFF1FE80FF91F838173
:100E200094810895DC01FC0120E030E044E650E0CC
:100E300005C0568345832F5F3F4F3C968D919C9113
:100E4000119728173907ACF30895FB01EE0FFF1F28
:100E5000E60FF71FEE0FFF1FEE0FFF1FE80FF91F42
:100E6000838194810196948383830895CF93DF9344
:100E7000EB01CC0FDD1FC60FD71FCC0FDD1FCC0F32
:100E8000DD1FC80FD91F8D819E818436910511F019
:100E900080E009C00E9466106F83788789879A87EF
:100EA0001E821D8281E0DF91CF910895AF92BF92A3
:100EB000CF92DF92EF92FF920F931F93CF93DF9326
:100EC000FC017B0171836083EC0100E010E044E6EB
:100ED000A42EB12C33E0C32ED12C11C00E94661079
:100EE0001A821C821B82BE82AD826F8378878987BB
:100EF0009A87DC86CB861D860F5F1F4F2C960E15BA
:100F00001F0564F3DF91CF911F910F91FF90EF9038
:100F1000DF90CF90BF90AF9008956F927F928F92A5
:100F20009F92AF92BF92CF92DF92EF92FF920F9378
:100F30001F93CF93DF93182F092F0E9466104B0148
:100F40005C01212F302FC901EC01CC24DD2474E693
:100F5000672E712C8D819E81843691057CF58F8161
:100F60009885A985BA85A5019401281B390B4A0BE0
:100F70005B0BCA01B9010E943E137B018C0120E08A
:100F800030E44CE156E40E94301418161CF47E82C2
:100F90006D8214C0C801B70120E030E44CE156E492
:100FA0000E94A31220E030E048EC52E40E94341486
:100FB0000E9490120E940B137E836D830894C11CC3
:100FC000D11C2C9638E0C316D10421F6DF91CF91C5
:100FD0001F910F91FF90EF90DF90CF90BF90AF9057
:100FE0009F908F907F906F900895FC0180819181F8
:100FF000009711F00E94BC0F8DE061E00E94681123
:101000008DE061E00E94A7116AEF70E080E090E05F
:101010000E9474108DE060E00E94A7116AEF70E0FA
:1010200080E090E00E947410EBCFCF93DF93EC014F
:101030001D821C821F821E82198618861B861A86B4
:101040001982188284E090E00E944B0E9B838A8371
:10105000009729F4CE0160E071E00E94F50782E07C
:1010600090E09D838C83DF91CF910895CF93DF93A0
:101070008130910551F56F5F7F4F09F068C08BE3B8
:1010800092E00E94150887E492E00E941508809182
:101090002702909128029093540280935302C1E654
:1010A000D2E0CE010E942904CF55DF4F86E0C83C34
:1010B000D807B9F788EC96E067E070E00E94560721
:1010C0008AE297E00E94FB0342C0892B09F03FC0EF
:1010D0006F5F7F4FE1F58091490290914A020E9433
:1010E000E80E10924A0210924902109248021092A1
:1010F000470210924C0210924B0210924E02109234
:101100004D021092500210924F0210925202109211
:10111000510280913D0290913E020E94E80E109291
:101120003E0210923D0210923C0210923B0210923D
:10113000400210923F02109242021092410210921D
:101140004402109243021092460210924502DF912F
:10115000CF91089580E090E06FEF7FEF0E94360816
:10116000089581E090E06FEF7FEF0E9436080895C8
:10117000AF92BF92CF92DF92EF92FF920F931F93A5
:10118000CF93DF93EC016B011616170624F060E392
:1011900071E00E94F507C601880F991F0E944B0E4F
:1011A000F82EE92E082F192F0115110529F4CE016B
:1011B00065E671E00E94F507AE80BF808F2D9E2D01
:1011C0009C01790120E030E014C0888599856C810C
:1011D0007D81820F931F0E94B614880F991FE80F1C
:1011E000F91F80819181F701819391937F012F5F96
:1011F0003F4FEA81FB812A153B053CF3CF010E945A
:10120000E80E1B830A83198618868E819F819B872F
:101210008A87DD82CC82DF91CF911F910F91FF9061
:10122000EF90DF90CF90BF90AF900895CF92DF9274
:10123000EF92FF920F931F93CF93DF937C018B016B
:10124000C0E0D0E061EAC62ED12CCC9DC001CD9D7E
:10125000900DDC9D900D11248F599D4FB701A80171
:1012600021E030E00E94B8062196C730D10569F729
:10127000DF91CF911F910F91FF90EF90DF90CF9072
:1012800008950F931F93CF93DF9380914102909124
:101290004202892B31F48BE392E06FE971E00E9406
:1012A000F50780914302909144029C01220F331F65
:1012B000E0913D02F0913E02E20FF31FC081D18127
:1012C0000196909344028093430220914102309111
:1012D0004202215030403093420220934102E0917B
:1012E0003F02F09140028E179F0721F410924402B2
:1012F000109243022115310589F0CF0164E070E0BE
:101300000E94B614621773074CF0CF0162E070E0E0
:101310000E94B6148BE392E00E94B808FE01EE0F23
:10132000FF1FED5AFD4F8091250290912602918377
:10133000808388EC96E0BE010E9404078C0188EC53
:1013400096E0BE010E94F606AC0181EA90E09C01A5
:10135000C29FC001C39F900DD29F900D11248F5941
:101360009D4FB8010E945104DF91CF911F910F91C1
:101370000895EF92FF920F931F93CF93DF93C0E0F6
:10138000D0E0F1EAEF2EF12C88EC96E0BE010E944D
:1013900004078C0188EC96E0BE010E94F606AC01C1
:1013A000CE9DC001CF9D900DDE9D900D11248F59D3
:1013B0009D4FB8010E9451042196C730D10521F7F5
:1013C000DF91CF911F910F91FF90EF9008950E94B0
:1013D000B90981E08093340208950E94E7090E94D0
:1013E000B90908958091110260E070E00E9408112F
:1013F00008950F931F93DF93CF93CDB7DEB72A974E
:101400000FB6F894DEBF0FBECDBF8C0183E090E035
:10141000909336028093350210923402F801EE0F59
:10142000FF1FED5AFD4F809121029091220291837E
:1014300080830E94F20988EC96E0B8010E9425079B
:1014400088EC96E00E9412070E94B909DE0111960D
:10145000E1EDF1E089E001900D928150E1F7802FFC
:101460008F5C898780E28A87CE0101966AE070E00E
:101470000E9416098AE297E048E853E160E070E0D4
:1014800027EE39E00E940D032A960FB6F894DEBFCE
:101490000FBECDBFCF91DF911F910F910895809125
:1014A000350290913602019729F580911B029091A7
:1014B0001C028130910549F48091130261E00E9481
:1014C000A7118091150260E00BC08F5F9F4F51F410
:1014D0008091130260E00E94A7118091150261E0E3
:1014E0000E94A71160913002709131028091110227
:1014F0000E94081108950F931F930AE217E060916C
:10150000370270913802C8010E9497026091390237
:1015100070913A02C8010E9497026091190270917D
:101520001A02809111020E9408111F910F910895D3
:101530002F923F924F925F926F927F928F929F92E3
:10154000AF92BF92DF92EF92FF920F931F93DF93C0
:10155000CF93CDB7DEB768970FB6F894DEBF0FBE56
:10156000CDBF80913402882309F463C180910D02BC
:1015700061E00E94A71180910D0260E00E94A71116
:1015800033E5E32E32E0F32EAA24BB2421E0222E01
:10159000312C91EA492E512C82E0682E712C0BE0FF
:1015A000802E912C8C0E9D1E40C180910F020E94B6
:1015B000FB11892B41F0C101002E02C0880F991F39
:1015C0000A94E2F7D82A8091090261E00E94A711EB
:1015D0008091090260E00E94A7110F5F1F4F083041
:1015E000110519F74D2D50E0D1FC59C0F7012081AC
:1015F000318180912102909122022817390709F048
:101600004EC08091350290913602019709F047C093
:1016100088EC96E0B5010E943607882309F409C1D9
:10162000109234020E947B0A40911D0250911E02CA
:10163000662757FD6095762F8AE297E027EE39E01E
:101640000E940D0340911D0250911E02662757FD16
:101650006095762F8AE297E021E33CE00E940D033B
:10166000DE011196EBEDF1E08AE001900D928150E0
:10167000E1F781EA90E09C01A29EC001A39E900D3B
:10168000B29E900D11248F599D4FBE016F5F7F4F09
:101690004AE050E021E030E00E94B806CAC042FDB6
:1016A0001AC07092360260923502D401E5EEF1E084
:1016B0008EE001900D928150E1F7C4016EE070E080
:1016C0000E9416098AE297E044EC59E060E070E07D
:1016D00020E53CE078C09A012170307040FF81C065
:1016E0008091350290913602019709F07AC0F70196
:1016F000208131818091230290912402281739079B
:1017000009F488C08091210290912202281739079C
:1017100009F05CC0A49CC001A59C900DB49C900DE8
:1017200011248F599D4F6EE70E94C30560914102BD
:101730007091420280913F029091400268177907B0
:1017400031F4660F771F8BE392E00E94B808209176
:10175000450230914602C901880F991FE0913D0270
:10176000F0913E02E80FF91FB182A0822F5F3F4F38
:10177000309346022093450280913F0290914002AF
:101780002817390721F410924602109245028091E1
:10179000410290914202019690934202809341024D
:1017A0008091230290912402F701918380834091DC
:1017B0001F0250912002662757FD6095762F8AE21E
:1017C00097E021E439E00E940D0324C080912502B6
:1017D0009091260228173907E9F4C5010E94F909FA
:1017E00019C08091350290913602232B51F481303B
:1017F000910511F0029771F48091210290912202DB
:1018000006C0029739F48091270290912802F701CF
:10181000918380830894A11CB11C22E030E0E20E89
:10182000F31E37E0A316B10421F0DD2400E010E040
:10183000BCCE68960FB6F894DEBF0FBECDBFCF9179
:10184000DF911F910F91FF90EF90DF90BF90AF90CD
:101850009F908F907F906F905F904F903F902F90D0
:1018600008950F931F9380911702909118029093FF
:101870003102809330020E944F0A0AE217E0609121
:10188000370270913802C8010E948C0260913902BF
:1018900070913A02C8010E948C021F910F91089525
:1018A00081E090E090933602809335020E94310CE3
:1018B00008958F929F92AF92BF92DF92EF92FF9224
:1018C0000F931F93CF93DF93EE24FF2451E0852ED7
:1018D000912C41EAA42EB12C8091090260E00E9473
:1018E000A71180910B0260E00E94A71180910D0268
:1018F00060E00E94A711C4010E2C02C0880F991F3E
:101900000A94E2F7D82EC6E0D0E080910B026091F5
:10191000090240E02D2D0E944E1210910B02009101
:101920000902CA9DC001CB9D900DDA9D900D112436
:101930008F599D4FB7010E947506282F812F602F68
:1019400040E00E944E1221978FEFCF3FD807E9F673
:1019500080910D0261E00E94A7110894E11CF11C26
:1019600088E0E816F10409F0B7CFDF91CF911F911D
:101970000F91FF90EF90DF90BF90AF909F908F906E
:101980000895CF93DF9380911B0290911C020197E1
:1019900009F044C060E070E080E090E024E630E0D0
:1019A00040E050E00E94F10F6B3571058105910513
:1019B000ACF18FEF9FEF90931C0280931B0268EEB7
:1019C00073E080E090E024EC39E040E050E00E94D9
:1019D000F10FAB01BC018AE297E021EC3CE00E94F0
:1019E0000D0317C060E070E080E090E024E630E096
:1019F00040E050E00E94F10F6036710581059105CD
:101A0000A4F0D0931C02C0931B02109231021092DA
:101A100030020E944F0ADF91CF910895C0911B02BE
:101A2000D0911C02C130D105E9F281E090E09093A1
:101A30001C0280931B02EDCF2091170230911802F7
:101A4000442737FD4095542F64E170E080E090E03A
:101A50000E94F10F70933102609330020E944F0A8E
:101A600008950E94590C8AE297E00E941F0380911A
:101A7000320290913302059731F40E94980A109235
:101A80003302109232028091320290913302019619
:101A9000909333028093320208950F931F93CF9354
:101AA000DF93C0E0D0E001EA10E0C09FC001C19F19
:101AB000900DD09F900D11248F599D4F0E94E705E6
:101AC0002196C730D10589F7DF91CF911F910F91F2
:101AD00008950F931F93CF93DF9388EC96E00E94B5
:101AE0008D07C0E0D0E001EA10E088EC96E0BE018E
:101AF0000E94F606BC01C09FC001C19F900DD09FFF
:101B0000900D11248F599D4F0E94D3042196C73008
:101B1000D10559F7DF91CF911F910F910895AF92A1
:101B2000BF92CF92DF92EF92FF920F931F93DF93BA
:101B3000CF93CDB7DEB762970FB6F894DEBF0FBE76
:101B4000CDBF8091090261E00E94681180910B0273
:101B500061E00E94681180910D0261E00E946811AD
:101B60008091110261E00E9468118091130261E08E
:101B70000E9468118091150261E00E9468118091B5
:101B80000F0260E00E946811DE011196E3EFF1E0C0
:101B900082E101900D928150E1F7EE24FF2461EA89
:101BA000A62EB12C6E010894C11CD11CEA9C8001A8
:101BB000EB9C100DFA9C100D11240F591D4FC801FC
:101BC000B7010E94E105C801B60142E150E00E9460
:101BD0007C060894E11CF11C87E0E816F10431F75B
:101BE0008091110260E070E00E9408118091130260
:101BF00061E00E94A7118091150260E00E94A71188
:101C00008AE297E043E250E060E070E02DE43DE0DE
:101C10000E9416038AE297E04AEF50E060E070E02D
:101C200029E63DE00E9416038AE297E040ED57E086
:101C300060E070E02DEE39E00E940D038AE297E04B
:101C400040ED57E060E070E02CE13DE00E941603BB
:101C500090933802809337028AE297E048EB5BE08A
:101C600060E070E021EC3CE00E94160390933A02A1
:101C70008093390262960FB6F894DEBF0FBECDBFD7
:101C8000CF91DF911F910F91FF90EF90DF90CF9058
:101C9000BF90AF9008950F931F93CF93DF93BC0134
:101CA0008230910510F462E070E0E091E107F0917C
:101CB000E207A0E0B0E040E050E024C080819181E4
:101CC00086179707D0F08617970771F48281938162
:101CD000109729F013969C938E9312972CC0909393
:101CE000E2078093E10727C04115510519F08417D9
:101CF000950718F4EF018D01AC01DF01828193811A
:101D00009C01F9013097D1F641155105F9F0CA014E
:101D1000861B970B8430910580F48A819B81011585
:101D2000110521F0F8019383828304C09093E207A8
:101D30008093E107FE01329645C0FE01E80FF91FCE
:101D4000619371930297998388833CC08091DF07E8
:101D50009091E007892B41F480912B0290912C0205
:101D60009093E0078093DF0740912D0250912E025F
:101D70004115510541F44DB75EB78091290290910C
:101D80002A02481B590B2091DF073091E0072417E6
:101D90003507B0F4CA01821B930B8617970780F0B2
:101DA000AB014E5F5F4F8417950750F0420F531FF2
:101DB0005093E0074093DF07F9016193719302C0EC
:101DC000E0E0F0E0CF01DF91CF911F910F910895F6
:101DD000CF93DF939C01009709F48FC0EC01229709
:101DE0001B821A826091E1077091E207611571050B
:101DF00081F488819981820F931F2091DF073091B0
:101E0000E0072817390739F5D093E007C093DF07BB
:101E100074C0DB0140E050E0AC17BD0708F1BB83A4
:101E2000AA83FE0121913191E20FF31FAE17BF0784
:101E300079F48D919C911197280F391F2E5F3F4F98
:101E40003983288312968D919C9113979B838A8363
:101E50004115510571F4D093E207C093E1074DC0DD
:101E600012968D919C911397AD01009711F0DC01B2
:101E7000D3CFDA011396DC93CE931297FA01219116
:101E80003191E20FF31FCE17DF0769F48881998142
:101E9000280F391F2E5F3F4FFA01318320838A813B
:101EA0009B8193838283E0E0F0E0DB0112968D91C9
:101EB0009C911397009719F0BC01FD01F6CFAB017F
:101EC0004E5F5F4FDB018D919C91840F951F209198
:101ED000DF073091E0072817390779F4309729F4A4
:101EE0001092E2071092E10702C013821282425060
:101EF00050405093E0074093DF07DF91CF91089562
:101F0000EF92FF920F931F938C01DC01ED91FC91F6
:101F10000190F081E02D6DE009957C01D801ED91F3
:101F2000FC910190F081E02DC8016AE009959C01C7
:101F30002E0D3F1DC9011F910F91FF90EF90089545
:101F4000CF93DF93EC016115710519F420E030E0C7
:101F50000FC0DB010D900020E9F71197A61BB70B0E
:101F6000E881F9810280F381E02DAD0109959C01A2
:101F7000C901DF91CF910895EF92FF920F931F93C4
:101F80007C010E94A00F8C01C7010E94800F080FE6
:101F9000191FC8011F910F91FF90EF900895EF92C4
:101FA000FF920F931F937B018C01611571058105D1
:101FB000910529F420E030E040E050E00BC00E94A1
:101FC0007702A80197010E94EB14AC01CB01DA0162
:101FD0009C01AD01B901CA011F910F91FF90EF90D3
:101FE0000895EF92FF920F931F937B018C0162176C
:101FF00073078407950764F4261B370B480B590BAE
:10200000CA01B9010E94CF0FE60EF71E081F191F63
:10201000B701C8011F910F91FF90EF900895CF93E2
:10202000DF930E94CD100E948F0DC0E0D0E00E948F
:10203000310D2097E1F30E940000F9CF1F920F921B
:102040000FB60F9211242F933F938F939F93AF93CB
:10205000BF938091DA079091DB07A091DC07B091E4
:10206000DD073091DE070196A11DB11D232F2D5FE5
:102070002D3720F02D570196A11DB11D2093DE07AD
:102080008093DA079093DB07A093DC07B093DD071A
:102090008091D6079091D707A091D807B091D90722
:1020A0000196A11DB11D8093D6079093D707A093E9
:1020B000D807B093D907BF91AF919F918F913F916E
:1020C0002F910F900FBE0F901F9018958FB7F89417
:1020D0002091DA073091DB074091DC075091DD0752
:1020E0008FBFB901CA0108959B01AC017FB7F89475
:1020F0008091D6079091D707A091D807B091D907C2
:1021000066B5A89B05C06F3F19F00196A11DB11DD2
:102110007FBFBA2FA92F982F8827860F911DA11D49
:10212000B11D62E0880F991FAA1FBB1F6A95D1F7E6
:10213000BC012DC0FFB7F8948091D6079091D707C6
:10214000A091D807B091D907E6B5A89B05C0EF3F8D
:1021500019F00196A11DB11DFFBFBA2FA92F982F0D
:1021600088278E0F911DA11DB11DE2E0880F991FD8
:10217000AA1FBB1FEA95D1F7861B970B885E934079
:10218000C8F2215030404040504068517C4F2115EA
:1021900031054105510571F60895789484B5826042
:1021A00084BD84B5816084BD85B5826085BD85B5FB
:1021B000816085BDEEE6F0E0808181608083E1E8AA
:1021C000F0E01082808182608083808181608083E2
:1021D000E0E8F0E0808181608083E1EBF0E08081E5
:1021E00084608083E0EBF0E0808181608083EAE7B7
:1021F000F0E0808184608083808182608083808140
:10220000816080838081806880831092C1000895FE
:102210001F93CF93DF93182FEB0161E00E946811A9
:10222000209709F44AC0CF3FD10509F449C0E12FF6
:10223000F0E0E452FC4F84918330C1F0843028F404
:10224000813051F08230B1F50CC0863019F1873001
:1022500049F1843079F514C084B5806884BDC7BD68
:1022600033C084B5806284BDC8BD2EC0809180001B
:10227000806880938000D0938900C093880024C038
:1022800080918000806280938000D0938B00C09307
:102290008A001AC08091B00080688093B000C0931B
:1022A000B30012C08091B00080628093B000C093F0
:1022B000B4000AC0C038D1051CF4812F60E002C010
:1022C000812F61E00E94A711DF91CF911F910895A6
:1022D000CF93DF93482F50E0CA0188539C4FFC01F5
:1022E00034914C545C4FFA018491882369F190E059
:1022F000880F991FFC01EA56FC4FA591B491FC018F
:10230000E056FC4FC591D491662351F42FB7F89451
:102310008C91932F909589238C93888189230BC06E
:10232000623061F42FB7F8948C91932F90958923A4
:102330008C938881832B88832FBF06C09FB7F89426
:102340008C91832B8C939FBFDF91CF910895482F61
:1023500050E0CA0184529C4FFC012491CA01885369
:102360009C4FFC0194914C545C4FFA0134913323FF
:1023700009F440C0222351F1233071F0243028F4B5
:102380002130A1F0223011F514C02630B1F02730F1
:10239000C1F02430D9F404C0809180008F7703C04D
:1023A000809180008F7D8093800010C084B58F77EE
:1023B00002C084B58F7D84BD09C08091B0008F7745
:1023C00003C08091B0008F7D8093B000E32FF0E0D8
:1023D000EE0FFF1FE056FC4FA591B4912FB7F89474
:1023E000662321F48C919095892302C08C91892BCE
:1023F0008C932FBF0895682F70E0CB0184529C4FBF
:10240000FC012491CB0188539C4FFC0144916C54F6
:102410007C4FFB019491992319F420E030E03CC0FB
:10242000222351F1233071F0243028F42130A1F01F
:10243000223011F514C02630B1F02730C1F024301D
:10244000D9F404C0809180008F7703C08091800010
:102450008F7D8093800010C084B58F7702C084B5D3
:102460008F7D84BD09C08091B0008F7703C08091BB
:10247000B0008F7D8093B000892F90E0880F991F66
:1024800086559C4FFC01A591B4918C9120E030E0E1
:10249000842311F021E030E0C9010895BF92CF926A
:1024A000DF92EF92FF920F931F93CF93DF93E82E6B
:1024B000F62EB42EC7E0D0E0022F10E087E0C82E41
:1024C000D12CBB2059F4B6016C1B7D0BC80102C096
:1024D000959587956A95E2F7BC0107C0B8010C2E67
:1024E00002C0759567950A94E2F761708E2D0E947F
:1024F000A7118F2D61E00E94A7118F2D60E00E942F
:10250000A71121979FEFCF3FD907D9F6DF91CF9140
:102510001F910F91FF90EF90DF90CF90BF900895A3
:1025200081D180F09F3740F491110EF493C160E0A7
:1025300070E080E89FE3089526F01B16611D711D71
:10254000811D01C11BC10CD03AC132D140F029D14B
:1025500030F021F45F3F19F0F0C051117BC11EC172
:102560003FD198F39923C9F35523B1F3951B550B2C
:10257000BB27AA2762177307840738F09F5F5F4F56
:10258000220F331F441FAA1FA9F333D00E2E3AF097
:10259000E0E830D091505040E695001CCAF729D0B1
:1025A000FE2F27D0660F771F881FBB1F2617370700
:1025B0004807AB07B0E809F0BB0B802DBF01FF2730
:1025C00093585F4F2AF09E3F510568F0B6C042C154
:1025D0005F3FECF3983EDCF3869577956795B7956A
:1025E000F7959F5FC9F7880F911D9695879597F985
:1025F0000895E1E0660F771F881FBB1F62177307FE
:102600008407BA0720F0621B730B840BBA0BEE1F12
:1026100088F7E095089504D06894B1111BC108951E
:10262000E7D088F09F5790F0B92F9927B751A0F0C5
:10263000D1F0660F771F881F991F1AF0BA95C9F756
:1026400012C0B13081F005D1B1E0089502C1672F09
:10265000782F8827B85F39F0B93FCCF38695779506
:102660006795B395D9F73EF49095809570956195EF
:102670007F4F8F4F9F4F0895E89409C097FB3EF41A
:1026800090958095709561957F4F8F4F9F4F9923BF
:10269000A9F0F92F96E9BB279395F695879577953D
:1026A0006795B795F111F8CFFAF4BB0F11F460FFFD
:1026B0001BC06F5F7F4F8F4F9F4F16C0882311F055
:1026C00096E911C0772321F09EE8872F762F05C069
:1026D000662371F096E8862F70E060E02AF09A9504
:1026E000660F771F881FDAF7880F9695879597F9F9
:1026F0000895990F0008550FAA0BE0E8FEEF161693
:102700001706E807F907C0F012161306E407F507E5
:1027100098F0621B730B840B950B39F40A2661F059
:10272000232B242B252B21F408950A2609F4A140FC
:10273000A6958FEF811D811D089597F99F6780E809
:1027400070E060E00895882371F4772321F09850B9
:10275000872B762F07C0662311F499270DC090515F
:10276000862B70E060E02AF09A95660F771F881F2D
:10277000DAF7880F9695879597F908959F3F49F066
:10278000915028F4869577956795B7959F5F803827
:102790009F4F880F9695879597F908959FEF80EC46
:1027A000089500240A9416161706180609060895B7
:1027B00000240A9412161306140605060895092E1D
:1027C0000394000C11F4882352F0BB0F40F4BF2B8C
:1027D00011F460FF04C06F5F7F4F8F4F9F4F0895CC
:1027E00057FD9058440F551F59F05F3F71F04795C2
:1027F000880F97FB991F61F09F3F79F087950895A7
:10280000121613061406551FF2CF4695F1DF08C0C5
:10281000161617061806991FF1CF869571056105E2
:1028200008940895E5DFA0F0BEE7B91788F4BB2748
:102830009F3860F41616B11D672F782F8827985F90
:10284000F7CF869577956795B11D93959639C8F31F
:102850000895E894BB2766277727CB0197F9089559
:1028600048DF08F48FEF08950BD0A9CF9ADF28F046
:102870009FDF18F0952309F060CF90CF1124EACFA5
:10288000AFDFA0F3959FD1F3950F50E0551F629FE6
:10289000F001729FBB27F00DB11D639FAA27F00DB9
:1028A000B11DAA1F649F6627B00DA11D661F829FE0
:1028B0002227B00DA11D621F739FB00DA11D621FC5
:1028C000839FA00D611D221F749F3327A00D611DE2
:1028D000231F849F600D211D822F762F6A2F1124C4
:1028E0009F5750408AF0E1F088234AF0EE0FFF1F17
:1028F000BB1F661F771F881F91505040A9F79E3F4E
:10290000510570F01ACFA6CF5F3FECF3983EDCF391
:10291000869577956795B795F795E7959F5FC1F78A
:10292000FE2B880F911D9695879597F90895629FC4
:10293000D001739FF001829FE00DF11D649FE00DB7
:10294000F11D929FF00D839FF00D749FF00D659F18
:10295000F00D9927729FB00DE11DF91F639FB00D17
:10296000E11DF91FBD01CF011124089597FB092E28
:1029700007260AD077FD04D049D006D000201AF4EB
:10298000709561957F4F0895F6F7909581959F4FCB
:102990000895A1E21A2EAA1BBB1BFD010DC0AA1FA0
:1029A000BB1FEE1FFF1FA217B307E407F50720F0B8
:1029B000A21BB30BE40BF50B661F771F881F991F33
:1029C0001A9469F760957095809590959B01AC017C
:1029D000BD01CF01089597FB092E05260ED057FDA6
:1029E00004D0D7DF0AD0001C38F4509540953095BC
:1029F00021953F4F4F4F5F4F0895F6F79095809583
:102A0000709561957F4F8F4F9F4F0895AA1BBB1BF9
:102A100051E107C0AA1FBB1FA617B70710F0A61BDE
:102A2000B70B881F991F5A95A9F780959095BC01FF
:102A3000CD010895EE0FFF1F0590F491E02D09944C
:102A40002F923F924F925F926F927F928F929F92BE
:102A5000AF92BF92CF92DF92EF92FF920F931F93AC
:102A6000CF93DF93CDB7DEB7CA1BDB0B0FB6F8945D
:102A7000DEBF0FBECDBF09942A88398848885F849D
:102A80006E847D848C849B84AA84B984C884DF800E
:102A9000EE80FD800C811B81AA81B981CE0FD11DF2
:102AA0000FB6F894DEBF0FBECDBFED01089513E061
:102AB000C2EFD3E004C0FE010E941C152296C43F61
:082AC000D107C9F7F894FFCF1C
:102AC80051554555453A20696E737566666963695F
:102AD800656E74206D656D6F727920746F20696EF4
:102AE800697469616C697A652071756575652E0010
:102AF80051554555453A206572726F722064756567
:102B080020746F20756E646573697261626C6520EC
:102B180073697A6520666F722071756575652073B3
:102B2800697A652E0051554555453A20696E737589
:102B38006666696369656E74206D656D6F7279206C
:102B4800746F20696E697469616C697A652074654F
:102B58006D706F726172792071756575652E00519F
:102B6800554555453A2063616E277420706F702073
:102B78006974656D2066726F6D2071756575653A4B
:102B880020717565756520697320656D7074792E7F
:102B9800004C4F4F534552202300002021545552DA
:102BA800424F21200020474F2120474F2120474FE7
:102BB800212000203C3C4C4F4F50494E47204C456B
:102BC8004E493E3E00010000000A000900080007C7
:102BD800000B000C000D00320050000100DC05EE77
:102BE8000201000200030004008000E30700000067
:00000001FF
