:100000000C94FA010C9422020C9422020C94220209
:100010000C9422020C9422020C9422020C942202D0
:100020000C9422020C9422020C9422020C942202C0
:100030000C9422020C9422020C9422020C942202B0
:100040000C94030F0C9422020C9422020C942202B2
:100050000C9422020C9422020C9422020C94220290
:100060000C9422020C942202000000000000000008
:100070000060FAFA6000000000E0E000E0E000004C
:1000800028FEFE28FEFE28002474D6D65C48000018
:1000900062660C18306646000C5EF2BAEC5E120026
:1000A00020E0C0000000000000387CC68200000094
:1000B0000082C67C3800000010547C38387C541014
:1000C00010107C7C101000000005070600000000E6
:1000D00010101010101000000000060600000000B4
:1000E000060C183060C080007CFE9AB2FE7C0000D6
:1000F0004242FEFE0202000046CE9A92F6660000E0
:1001000044C69292FE6C0000183868C8FEFE0800D3
:10011000E4E6A2A2BE9C00003C7ED2929E0C0000AF
:10012000C0C68E98F0E000006CFE9292FE6C00005B
:1001300060F29296FC780000000036360000000065
:10014000000537360000000010386CC68200000041
:1001500028282828282800000082C66C38100000B3
:1001600040C08A9AF06000007CFE82BABAF878003B
:100170003E7EC8C87E3E000082FEFE9292FE6C006B
:10018000387CC68282C6440082FEFE82C6FE3800EB
:1001900082FEFE92BA82C60082FEFE92B880C00045
:1001A000387CC6828ACE4E00FEFE1010FEFE000095
:1001B0000082FEFE820000000C0E0282FEFC800027
:1001C00082FEFE1038EEC60082FEFE8202060E009F
:1001D000FEFE603060FEFE00FEFE603018FEFE0097
:1001E000387CC682C67C380082FEFE9290F06000A9
:1001F00078FC848EFE7A000082FEFE989CF66200F7
:1002000064E6B29ADE4C0000C082FEFE82C00000AE
:10021000FEFE0202FEFE0000F8FC0606FCF80000EE
:10022000FEFE0C180CFEFE00C6EE381038EEC600BE
:10023000E0F21E1EF2E00000E6CE9AB2E2C68E00A8
:1002400000FEFE828200000080C06030180C0600B4
:10025000008282FEFE000000103060C0603010009E
:1002600001010101010101010000C0E020000000C6
:10027000042E2A2A3C1E020082FCFE22223E1C0082
:100280001C3E2222361400000C1E1292FCFE0200BC
:100290001C3E2A2A3A180000127EFE92C04000003E
:1002A000193D25251F3E200082FEFE10203E1E0027
:1002B0000022BEBE02000000022321BFBE000000DB
:1002C00082FEFE081C3622000082FEFE02000000B4
:1002D0003E3E3018303E1E003E3E20203E1E0000B6
:1002E0001C3E22223E1C0000213F1F25243C1800FA
:1002F000183C24251F3F2100223E1E2238180000F2
:10030000123A2A2A2E24000000207CFE222400001B
:100310003C3E02023C3E0200383C06063C380000EF
:100320003C3E060C063E3C0022361C081C362200D1
:10033000393D05053F3E000032262E3A32260000A8
:1003400010107CEE82820000000000EEEE00000043
:100350008282EE7C1010000000626404046462007B
:100360001E3E62C2623E1E000062640404646200BB
:100370000062640404646200F888F80000F8B8A819
:10038000E888A8F8E020F8E8A8B8F8A8B88080F8CD
:10039000F8A8F8E0A0F800000000240027002A00D8
:1003A00000000000250028002B00000000002300B2
:1003B00026002900040404040404040402020202C6
:1003C0000202030303030303010204081020408018
:1003D0000102040810200102040810200000000798
:1003E00000020100000304060000000000000000FD
:1003F0004003390311241FBECFEFD8E0DEBFCDBFCD
:1004000012E0A0E0B1E0E2EBF8E202C005900D924C
:10041000A232B107D9F717E0A2E2B2E001C01D9203
:10042000AD3EB107E1F713E0C2EFD3E004C022977D
:10043000FE010E941114C03FD107C9F70E94F40EBB
:100440000C944C140C940000A0E0B0E0EAE2F2E05E
:100450000C941D14EC01A880B980CA80DB80A11423
:10046000B104C104D10441F484E2A82E89EDB82E70
:100470008BE5C82E87E0D82EC601B5012DE133EFFC
:1004800041E050E00E94E01327EA31E440E050E010
:100490000E948C137B018C01C601B5012DE133EF65
:1004A00041E050E00E94E013CA01B9012CEE34EFA4
:1004B0004FEF5FEF0E948C136E0D7F1D801F911F09
:1004C00097FF04C0615070408040904868837983F2
:1004D0008A839B839B01AC015F77B901CA01CDB7C9
:1004E000DEB7EAE00C9439140E94240208958CEDE2
:1004F00091E00E94240208956093DC017093DD0175
:100500008093DE019093DF010895FB01DC010190EF
:100510000D920020E1F70895FC0180819181009700
:1005200011F00E94A10E8DE061E00E945C108DE050
:1005300061E00E949B106AEF70E080E090E00E9412
:10054000940F8DE060E00E949B106AEF70E080E005
:1005500090E00E94940FEBCFCF93DF93EC011D82CC
:100560001C821F821E82198618861B861A86198293
:10057000188284E090E00E94300D9B838A8300976C
:1005800029F4CE0160E071E00E948C0282E090E0EC
:100590009D838C83DF91CF910895CF93DF9381303A
:1005A000910511F56F5F7F4F09F060C08AE292E01C
:1005B0000E94AC0286E392E00E94AC02C2E4D2E068
:1005C000CE010E94BD09CE56DF4F86E0C23DD8075E
:1005D000B9F782ED96E068E070E00E94910C84E348
:1005E00097E00E948F0942C0892B09F03FC06F5FDE
:1005F0007F4FE1F580913802909139020E94CD0D34
:10060000109239021092380210923702109236027C
:1006100010923B0210923A0210923D0210923C025C
:1006200010923F0210923E0210924102109240023C
:1006300080912C0290912D020E94CD0D10922D02DE
:1006400010922C0210922B0210922A0210922F026A
:1006500010922E0210923102109230021092330248
:10066000109232021092350210923402DF91CF9133
:10067000089580E090E06FEF7FEF0E94CD02089533
:1006800081E090E06FEF7FEF0E94CD020895AF927E
:10069000BF92CF92DF92EF92FF920F931F93CF936F
:1006A000DF93EC016B011616170624F060E371E08E
:1006B0000E948C02C601880F991F0E94300DF82EEF
:1006C000E92E082F192F0115110529F4CE0165E631
:1006D00071E00E948C02AE80BF808F2D9E2D9C0108
:1006E000790120E030E014C0888599856C817D8196
:1006F000820F931F0E94AB13880F991FE80FF91FF9
:1007000080819181F701819391937F012F5F3F4F0A
:10071000EA81FB812A153B053CF3CF010E94CD0DF8
:100720001B830A83198618868E819F819B878A87FF
:10073000DD82CC82DF91CF911F910F91FF90EF90DE
:10074000DF90CF90BF90AF900895CF92DF92EF925D
:10075000FF920F931F93CF93DF937C018B01C0E037
:10076000D0E062E9C62ED12CCC9DC001CD9D900D6C
:10077000DC9D900D11248E5B9D4FB701A80121E0F7
:1007800030E00E94000C2196C830D10569F7DF9156
:10079000CF911F910F91FF90EF90DF90CF90089530
:1007A0008BE060E070E00E94FC0F089580912302CE
:1007B000813029F580910A02823039F48CE061E0C1
:1007C0000E949B108DE060E008C0813041F48CE015
:1007D00060E00E949B108DE061E00E949B10809180
:1007E0002902882331F08BE06AE570E00E94FC0F5B
:1007F0000895609122028BE070E00E94FC0F089542
:100800000F931F9304E317E060912402C80170E086
:100810000E942B0860912502C80170E00E942B08FD
:100820008BE06AE570E00E94FC0F1F910F91089524
:10083000AF92BF92CF92DF92FF920F931F93CF930D
:10084000DF9300E010E0E1E0AE2EB12C72E9C72E9C
:10085000D12C8AE060E00E949B1089E060E00E9459
:100860009B1088E060E00E949B10C501002E02C032
:10087000880F991F0A94E2F7F82EC7E0D0E089E0CC
:100880006AE040E02F2D0E944211CC9DC001CD9D19
:10089000900DDC9D900D11248E5B9D4FB8010E9440
:1008A000C80B282F89E06AE040E00E94421121979E
:1008B0008FEFCF3FD80719F788E061E00E949B10C7
:1008C0000F5F1F4F0830110521F6DF91CF911F9167
:1008D0000F91FF90DF90CF90BF90AF90089560E0B0
:1008E00070E080E090E024E630E040E050E00E94DC
:1008F000D60E6093260280910A028230E9F46036B7
:1009000018F0109222021BC06135B0F081E0809394
:100910000A0268EE73E080E090E024EC39E040E009
:1009200050E00E94D60EAB01BC0184E397E02FE6B5
:1009300034E00E94A10803C082E080930A020E9472
:10094000D603089564E170E080E090E022E330E0B7
:1009500040E050E00E94D60E609322020E94D6032F
:1009600008950F931F9304E317E060912402C801D8
:1009700070E00E94200860912502C80170E00E948A
:1009800020081F910F9108951092290282E380930D
:1009900022020E94B1040E94D60308950F931F9370
:1009A000CF93DF93C0E0D0E002E910E0C09FC00128
:1009B000C19F900DD09F900D11248E5B9D4F0E9482
:1009C0005A0B2196C830D10589F7DF91CF911F913D
:1009D0000F910895CF92DF92EF92FF920F931F93A2
:1009E000CF93DF937C018B01C0E0D0E0F2E9CF2E02
:1009F000D12CCC9DC001CD9D900DDC9D900D11247E
:100A00008E5B9D4FB701A8010E94CF0B2196C83085
:100A1000D10579F7DF91CF911F910F91FF90EF9062
:100A2000DF90CF9008950F931F93DF93CF93CDB7AF
:100A3000DEB72B970FB6F894DEBF0FBECDBF8C018B
:100A400083E080932302109228020E94D00382ED5B
:100A500096E0B8010E94600C82ED96E00E944D0C79
:100A6000DE011196EFE9F1E08AE001900D928150EC
:100A7000E1F7802F8F5C8A8780E28B87CE01019619
:100A80006BE070E00E94EA0484E397E044E351E203
:100A900060E070E029E637E00E94A108109227028A
:100AA000000F111F055F1D4F81E090E0F801918359
:100AB00080832B960FB6F894DEBF0FBECDBFCF91CB
:100AC000DF911F910F9108958F929F92AF92BF92E5
:100AD000CF92DF92EF92FF920F931F93CF93DF930A
:100AE00088E061E00E949B1088E060E00E949B101B
:100AF0000BE012E0CC24DD2491E0A92EB12C84E09F
:100B0000882E912C20C187E00E94EF10892B41F0A4
:100B1000C5010C2E02C0880F991F0A94E2F7F82A2B
:100B20008AE061E00E949B108AE060E00E949B10D6
:100B30002196C830D10539F780912802882309F41D
:100B400006C180912702882309F401C18091230204
:100B5000843009F0FCC0F2FCFAC082E080932302EA
:100B600082EF91E06EE070E00E94A50384E397E0DD
:100B700042EB5CE060E070E02DEF36E0B5C0E09065
:100B8000230221E0E21609F0E7C0F801808191819B
:100B9000019709F0E1C0F1FCDFC080910A028230C8
:100BA00009F0C8C082ED96E0B6010E94710C88235E
:100BB00009F4C0C0E0922902109228020E940004A9
:100BC00084E397E048EE53E060E070E023E637E02E
:100BD0000E94A10884E397E048EE53E060E070E0F3
:100BE00024EC34E00E94A10882E990E09C01C29EBE
:100BF000C001C39E900DD29E900D11248E5B9D4F1F
:100C000060E072E04AE050E021E030E00E94000C39
:100C1000A8C0F801808191818430910509F46DC0EC
:100C2000F0FE6BC08230910509F484C081309105DB
:100C300009F05DC0F601EE0FFF1FE55FFD4F82E09A
:100C400090E09183808382E990E09C01C29EC00184
:100C5000C39E900DD29E900D11248E5B9D4F6EE72A
:100C60000E942F0B609130027091310280912E0210
:100C700090912F026817790731F4660F771F8AE287
:100C800092E00E9447032091340230913502C9015D
:100C9000880F991FE0912C02F0912D02E80FF91FA7
:100CA000D182C0822F5F3F4F3093350220933402B0
:100CB00080912E0290912F022817390721F410926B
:100CC00035021092340280913002909131020196E7
:100CD000909331028093300284E397E04EEE52E02D
:100CE00060E070E027E037E00E94A1083AC0039777
:100CF00009F5C6010E94130534C0F0FC1BC004C0F6
:100D0000823031F4F0FC11C0F801B182A08212C02F
:100D1000843049F4F0FC0EC0F801B182A08281E079
:100D20008093270207C0823029F4F0FE03C0F80147
:100D3000918280820894C11CD11C0E5F1F4FF8E085
:100D4000CF16D10471F0FF24C0E0D0E0DCCE80915A
:100D50002802882309F013CF80912302813081F685
:100D600058CFDF91CF911F910F91FF90EF90DF90BF
:100D7000CF90BF90AF909F908F90089584E397E0BD
:100D80000E94B3080E9464050E9418040895CF923F
:100D9000DF92EF92FF920F931F93CF93DF93C0E008
:100DA000D0E022E9C22ED12CCC9D8001CD9D100D2A
:100DB000DC9D100D11240E5B1D4FC8010E94510BCC
:100DC00082ED96E0BE010E943F0C7C0182ED96E030
:100DD000BE010E94310CAC01C801B7010E94D609C6
:100DE0002196C830D10501F7DF91CF911F910F9166
:100DF000FF90EF90DF90CF90089581E080932302E1
:100E0000109229020E94C4040E94C7060895CF933D
:100E1000DF938091300290913102892B31F48AE284
:100E200092E06AEA71E00E948C0280913202909115
:100E300033029C01220F331FE0912C02F0912D020E
:100E4000E20FF31FC081D18101969093330280930A
:100E500032022091300230913102215030403093E3
:100E6000310220933002E0912E02F0912F028E1772
:100E70009F0721F41092330210923202211531059E
:100E800089F0CF0164E070E00E94AB136217730732
:100E90004CF0CF0162E070E00E94AB138AE292E076
:100EA0000E944703CC0FDD1FC55FDD4F83E090E05C
:100EB0009983888380912302813011F40E94C706B0
:100EC000DF91CF9108950E94C70681E080932802A8
:100ED00008950E9463070E94C70684E0809323025E
:100EE00008950F931F93CF93DF9382ED96E00E94B6
:100EF000C80CC0E0D0E002E910E082ED96E0BE014F
:100F00000E94310CBC01C09FC001C19F900DD09FB9
:100F1000900D11248E5B9D4F0E94530A2196C8307C
:100F2000D10559F7DF91CF911F910F910895EF925D
:100F3000FF920F931F93CF93DF938AE061E00E94AB
:100F40005C1089E061E00E945C1088E061E00E9432
:100F50005C108BE061E00E945C108CE061E00E941C
:100F60005C108DE061E00E945C108BE060E070E05E
:100F70000E94FC0F87E060E00E945C10C0E0D0E0BF
:100F800052E9E52EF12CCE9D8001CF9D100DDE9D06
:100F9000100D11240E5B1D4FC801BE010E944C0BA9
:100FA000C80160EE71E042E150E00E94CF0B219653
:100FB000C830D10541F78CE061E00E949B108DE0C4
:100FC00060E00E949B1084E397E043E250E060E021
:100FD00070E02EEC34E00E94AA0884E397E04CE233
:100FE00051E060E070E021E737E00E94AA0884E366
:100FF00097E046E156E260E070E029E637E00E94C3
:10100000A10884E397E040ED57E060E070E022EA59
:1010100034E00E94AA088093240284E397E048EB1E
:101020005BE060E070E02FE634E00E94AA08809365
:101030002502DF91CF911F910F91FF90EF900895BE
:10104000FC016A30710534F4E60FF71FE457FF4FD7
:1010500081E080830895FC016A3071052CF4E60F6D
:10106000F71FE457FF4F10820895EF92FF920F93FE
:101070001F93CF93DF937C018AEA90E0E80EF91E7C
:10108000F70180819181E6E5FFEFEE0EFF1E0A97E2
:101090000CF048C0F701B896C0E0D0E080819181A3
:1010A000892B09F449C021963296CA30D105B1F78F
:1010B00039C0FE013F96EE0FFF1FEE0FFF1FEE0D32
:1010C000FF1D4083518362837383FE017496EE0F8C
:1010D000FF1FEE0DFF1D31832083FE01F296EE0F00
:1010E000FF1FEE0DFF1D11830083F701EC0FFD1FA5
:1010F000E457FF4F81E080830E944B0FFE01EE0F0B
:10110000FF1FEE0FFF1FEE0DFF1D608371838283B3
:101110009383F701E655FF4F80819181019691837A
:10112000808302C0CFEFDFEFCE01DF91CF911F911F
:101130000F91FF90EF9008952115310509F0B9CF77
:10114000F1CF0F931F9301E010E00E9435081F912B
:101150000F9108950F931F9300E010E00E9435084F
:101160001F910F9108952F923F924F925F926F922D
:101170007F928F929F92AF92BF92CF92DF92EF9227
:10118000FF920F931F93CF93DF936C010E944B0F3D
:101190001B012C01F601EA56FF4FB6013CE8632E15
:1011A000712C6C0C7D1CE601CC59DF4F4301AA2445
:1011B000BB2411821082EE56F04080819181E25969
:1011C000FF4F892B09F440C0DB01ED90FD900D919C
:1011D0001C911397DC962D913D914D915C91DF9779
:1011E000D201C1018E199F09A00BB10B8217930781
:1011F000A407B50748F12E0D3F1D401F511FDB010D
:101200002D933D934D935C931397D4018C91882338
:10121000D9F0288139812115310519F441E050E0D8
:1012200011C08C899D898217930774F4A1E0B0E006
:10123000B183A08301969D8B8C8B8217930724F03A
:1012400042E050E0518340830894A11CB11C3296C7
:101250006C5F7F4F0894811C911C22965AE0A51662
:10126000B10409F0A6CFE601A8962CE3E22EF12CFA
:10127000EC0CFD1C860108581F4F8AEA90E0C80E4E
:10128000D91E5701D8015E968D919C915F97813050
:10129000910519F0029719F504C0E881F9810995C3
:1012A0001EC0E881F9810995F6012081318121155F
:1012B0003105A9F088819981892B89F019821882DA
:1012C000D3011C92F7011082118212821382D8017D
:1012D0001D921C9221503040F601318320832296CA
:1012E0000894611C711C44E050E0E40EF51E0E5F92
:1012F0001F4FCA15DB0531F6DF91CF911F910F917A
:10130000FF90EF90DF90CF90BF90AF909F908F9025
:101310007F906F905F904F903F902F9008950F9324
:101320001F93CF93DF93EC010E944B0FAE01445704
:101330005F4FFE01B8968E0120E030E0DA011D9289
:10134000AD0111821082D8016D937D938D939D9391
:101350008D01E05BFF4F118210822F5F3F4FEE54F3
:10136000F0402A30310551F7C655DF4F19821882F7
:10137000DF91CF911F910F910895FC01E058FF4F2D
:1013800080E28193819311921192119211921192A4
:101390001192119211921192119211921082329621
:1013A0001192119210823397108208950F931F9318
:1013B000CF93DF93EC019B018A01FC01E657FF4FBD
:1013C0008081813009F46AC0C157DF4F199283E0F0
:1013D000808369934883C159D040CB016AE070E0B3
:1013E0000E94AB13FB01C9016AE070E00E94AB13DD
:1013F0009C01DE01A658BF4F80E090E0AF01440F92
:10140000551F4E0F5F1FB901660F771F620F731FC5
:10141000FC01E40FF51FE858FC4FE4911596EC939E
:101420001597FC01E60FF71FE858FC4FE491EC9389
:10143000019611978330910559F7C558DF4F1992DE
:101440001882CC57D040C80123E0880F991F2A95F5
:10145000E1F76CE97FEF0E94AB13695F7F4FFE01FC
:10146000E158FF4F27E030E006C080818360808331
:1014700021503040319762177307BCF328583F4F13
:10148000FE01E20FF31F2857304006C080818C7F99
:10149000808321503040319737FFF8CFDF91CF91D3
:1014A0001F910F910895FC01AB01EF56FF4F608330
:1014B00037978081EA58F040833049F4E057FF4F76
:1014C0006081E059F040CF0170E00E94D609089594
:1014D000CF93DF93EC01C657DF4F8881CA58D040C5
:1014E000813001F5DE01A058BF4FC457DF4F88811E
:1014F000CC58D04090E0FE01E80FF91F20812C93DA
:10150000FC013196CB57DF4F8881C558D04090E021
:10151000DE01AF57BF4FE817F90734F5EC0FFD1F99
:10152000808123C0823011F5DE01A058BF4FC35720
:10153000DF4F8881CD58D04090E0FE01E80FF91FC1
:1015400024AD2C93FC013196CA57DF4F8881C658D1
:10155000D04090E0DE01AF57BF4FE817F90724F401
:10156000EC0FFD1F84AD01C080E28C93DF91CF9121
:1015700008951F93CF93DF93DC01A657BF4F8C9143
:10158000AA58B040833008F05BC0813031F4AE57C8
:10159000BF4F8C91A258B0400CC0823029F080E03F
:1015A00090E040E050E007C0AD57BF4F8C91A3588A
:1015B000B04090E0AC01ED01C158DF4F27E030E0D2
:1015C000BD0160587F4F16C0FB011081E12FFF273E
:1015D000E7FDF095B09713E0EE0FFF1F1A95E1F7C6
:1015E000E80FF91FE859FF4FE491E8830196215075
:1015F00030402197241735073CF728583F4FED011D
:10160000C20FD31F2857304080E090E0AF57BF4F44
:1016100014C0EC91FF27E7FDF095B09773E0EE0F53
:10162000FF1F7A95E1F7E80FF91FE859FF4FE491A2
:10163000E883019621503040219737FFEACF0BC055
:10164000A057BF4F6D914C91A159B040CD0170E0B2
:1016500050E00E94D609DF91CF911F9108950F931A
:101660001F938C0101571F4FF80110820550104045
:10167000F80110820A501040F80161938F0180E256
:10168000808301581040C8010E94680AC8010E9466
:10169000B90A1F910F910895FC01E757FF4F60832E
:1016A0000895FC01E657FF4F83E08083359681E083
:1016B00080830895CF93DF93EC019C0126573F4F21
:1016C000F9014081423091F1FC01EE57FF4F8081DA
:1016D0008F5F8083883008F448C01082DE01A457F1
:1016E000BF4F8C918F5F8C93CB57DF4F9881C5583C
:1016F000D0408917B8F0FE01E857FF4F90819F5FF7
:1017000090831C92413071F4C957DF4F8881C758CC
:10171000D040981738F0C557DF4F8881CB58D0405C
:10172000F9018083CE010E94680A1FC0FC01ED57B9
:10173000FF4F80818F5F8083883090F01082FE01A0
:10174000E357FF4F80818F5F8083CA57DF4F9881B7
:10175000C658D040891708F01082CE010E94680A4E
:10176000C257DF4F1882CE58D040C157DF4F888113
:10177000CF58D040882319F0CE010E94B90AFE014B
:10178000E257FF4F80818F5F8083DF91CF91089573
:10179000FB01E80FF91FE858FF4F80810895FF9281
:1017A0000F931F938C01F42E01571F4F81E0D80136
:1017B0008C930550104082E0F80180830A58104055
:1017C000C801CC960E9485020A571F4FFA94D8018F
:1017D000FC9206581040F801E357FF4F07571F4F80
:1017E000D8018C910958104081958083C8010E94CE
:1017F000680AC8010E94B90A1F910F91FF900895CD
:101800001F93CF93DF93EC01142FC657DF4F8881CE
:10181000CA58D040813029F0C557DF4F8883CB5854
:10182000D040C657DF4F81E08883229718822A93E1
:1018300028968883CF58D040CE010E948502CB578E
:10184000DF4F1150188327961882CC58D040CE0114
:101850000E94680ACE010E94B90ADF91CF911F91C0
:101860000895FB01EE0FFF1FE60FF71FEE0FFF1F9E
:10187000EE0FFF1FE80FF91F858196810895FB0188
:10188000EE0FFF1FE60FF71FEE0FFF1FEE0FFF1FFC
:10189000E80FF91F838194810895DC01FC0120E0A9
:1018A00030E044E650E005C0568345832F5F3F4F4C
:1018B0003C968D919C91119728173907ACF30895A8
:1018C000FB01EE0FFF1FE60FF71FEE0FFF1FEE0FDE
:1018D000FF1FE80FF91F838194810196948383830E
:1018E0000895CF93DF93EB01CC0FDD1FC60FD71FF9
:1018F000CC0FDD1FCC0FDD1FC80FD91F8D819E813E
:101900008436910511F080E009C00E944B0F6F836F
:10191000788789879A871E821D8281E0DF91CF9127
:101920000895AF92BF92CF92DF92EF92FF920F9302
:101930001F93CF93DF93FC017B0171836083EC01E4
:1019400000E010E044E6A42EB12C33E0C32ED12CED
:1019500011C00E944B0F1A821C821B82BE82AD8274
:101960006F83788789879A87DC86CB861D860F5F91
:101970001F4F2C960E151F0564F3DF91CF911F9119
:101980000F91FF90EF90DF90CF90BF90AF900895B0
:101990006F927F928F929F92AF92BF92CF92DF927F
:1019A000EF92FF920F931F93CF93DF93182F092F7E
:1019B0000E944B0F4B015C01212F302FC901EC011C
:1019C000CC24DD2474E6672E712C8D819E818436B3
:1019D00091057CF58F819885A985BA85A50194012B
:1019E000281B390B4A0B5B0BCA01B9010E94331249
:1019F0007B018C0120E030E44CE156E40E94251389
:101A000018161CF47E826D8214C0C801B70120E054
:101A100030E44CE156E40E94981120E030E048ECBC
:101A200052E40E9429130E9485110E9400127E83B5
:101A30006D830894C11CD11C2C9638E0C316D104C8
:101A400021F6DF91CF911F910F91FF90EF90DF90E2
:101A5000CF90BF90AF909F908F907F906F900895A0
:101A60000F931F93CF93DF93BC018230910510F445
:101A700062E070E0E091EB07F091EC07A0E0B0E0ED
:101A800040E050E024C08081918186179707D0F014
:101A90008617970771F482819381109729F0139626
:101AA0009C938E9312972CC09093EC078093EB0736
:101AB00027C04115510519F08417950718F4EF0157
:101AC0008D01AC01DF01828193819C01F901309786
:101AD000D1F641155105F9F0CA01861B970B8430E8
:101AE000910580F48A819B810115110521F0F8018F
:101AF0009383828304C09093EC078093EB07FE01ED
:101B0000329645C0FE01E80FF91F61937193029769
:101B1000998388833CC08091E9079091EA07892BDB
:101B200041F480911D0290911E029093EA078093E8
:101B3000E90740911F02509120024115510541F4DF
:101B40004DB75EB780911B0290911C02481B590B48
:101B50002091E9073091EA0724173507B0F4CA014C
:101B6000821B930B8617970780F0AB014E5F5F4F88
:101B70008417950750F0420F531F5093EA07409384
:101B8000E907F9016193719302C0E0E0F0E0CF0151
:101B9000DF91CF911F910F910895CF93DF939C0117
:101BA000009709F48FC0EC0122971B821A82609182
:101BB000EB077091EC076115710581F488819981BB
:101BC000820F931F2091E9073091EA072817390700
:101BD00039F5D093EA07C093E90774C0DB0140E010
:101BE00050E0AC17BD0708F1BB83AA83FE01219129
:101BF0003191E20FF31FAE17BF0779F48D919C91DD
:101C00001197280F391F2E5F3F4F39832883129673
:101C10008D919C9113979B838A834115510571F493
:101C2000D093EC07C093EB074DC012968D919C9119
:101C30001397AD01009711F0DC01D3CFDA011396B1
:101C4000DC93CE931297FA0121913191E20FF31FA9
:101C5000CE17DF0769F488819981280F391F2E5F1D
:101C60003F4FFA01318320838A819B819383828352
:101C7000E0E0F0E0DB0112968D919C9113970097C4
:101C800019F0BC01FD01F6CFAB014E5F5F4FDB01E8
:101C90008D919C91840F951F2091E9073091EA075F
:101CA0002817390779F4309729F41092EC0710922D
:101CB000EB0702C013821282425050405093EA0751
:101CC0004093E907DF91CF910895EF92FF920F9330
:101CD0001F938C01DC01ED91FC910190F081E02DCE
:101CE0006DE009957C01D801ED91FC910190F081A6
:101CF000E02DC8016AE009959C012E0D3F1DC90128
:101D00001F910F91FF90EF900895CF93DF93EC0117
:101D10006115710519F420E030E00FC0DB010D9072
:101D20000020E9F71197A61BB70BE881F981028023
:101D3000F381E02DAD0109959C01C901DF91CF919F
:101D40000895EF92FF920F931F937C010E94850EDE
:101D50008C01C7010E94650E080F191FC8011F9151
:101D60000F91FF90EF900895EF92FF920F931F93C2
:101D70007B018C01611571058105910529F420E035
:101D800030E040E050E00BC00E947702A8019701CC
:101D90000E94E013AC01CB01DA019C01AD01B90155
:101DA000CA011F910F91FF90EF900895EF92FF925B
:101DB0000F931F937B018C016217730784079507AC
:101DC00064F4261B370B480B590BCA01B9010E945A
:101DD000B40EE60EF71E081F191FB701C8011F91A8
:101DE0000F91FF90EF900895CF93DF930E94590FCA
:101DF0000E949707C0E0D0E00E94BE062097E1F362
:101E00000E940000F9CF1F920F920FB60F9211247B
:101E10002F933F938F939F93AF93BF938091E4074A
:101E20009091E507A091E607B091E7073091E807A8
:101E30000196A11DB11D232F2D5F2D3720F02D57A9
:101E40000196A11DB11D2093E8078093E4079093AC
:101E5000E507A093E607B093E7078091E00790912C
:101E6000E107A091E207B091E3070196A11DB11D22
:101E70008093E0079093E107A093E207B093E30714
:101E8000BF91AF919F918F913F912F910F900FBE76
:101E90000F901F9018958FB7F8942091E407309118
:101EA000E5074091E6075091E7078FBFB901CA01E6
:101EB0000895789484B5826084BD84B5816084BDC2
:101EC00085B5826085BD85B5816085BDEEE6F0E0B3
:101ED000808181608083E1E8F0E01082808182600F
:101EE0008083808181608083E0E8F0E08081816090
:101EF0008083E1EBF0E0808184608083E0EBF0E0C0
:101F0000808181608083EAE7F0E080818460808363
:101F1000808182608083808181608083808180680D
:101F200080831092C1000895EF92FF920F931F9348
:101F3000CF93DF937B018C013FB7F8948091E0074A
:101F40009091E107A091E207B091E30726B5A89B25
:101F500005C02F3F19F00196A11DB11D3FBFBA2F3B
:101F6000A92F982F8827820F911DA11DB11D52E026
:101F7000880F991FAA1FBB1F5A95D1F7EC0130C0DB
:101F80000E9484113FB7F8948091E0079091E10797
:101F9000A091E207B091E30726B5A89B05C02F3FAB
:101FA00019F00196A11DB11D3FBFBA2FA92F982F7F
:101FB0008827820F911DA11DB11D32E0880F991F46
:101FC000AA1FBB1F3A95D1F78C1B9D0B885E9340CF
:101FD000B8F20894E108F10801091109C851DC4F71
:101FE000E114F1040105110559F6DF91CF911F911C
:101FF0000F91FF90EF9008951F93CF93DF93182FC9
:10200000EB0161E00E945C10209709F44AC0CF3FC9
:10201000D10509F449C0E12FF0E0E452FC4F84916E
:102020008330C1F0843028F4813051F08230B1F532
:102030000CC0863019F1873049F1843079F514C02D
:1020400084B5806884BDC7BD33C084B5806284BD5B
:10205000C8BD2EC080918000806880938000D0939E
:102060008900C093880024C08091800080628093A2
:102070008000D0938B00C0938A001AC08091B0007A
:1020800080688093B000C093B30012C08091B0000C
:1020900080628093B000C093B4000AC0C038D105FC
:1020A0001CF4812F60E002C0812F61E00E949B1030
:1020B000DF91CF911F910895CF93DF93482F50E088
:1020C000CA0188539C4FFC0134914C545C4FFA0177
:1020D0008491882369F190E0880F991FFC01EA56EA
:1020E000FC4FA591B491FC01E056FC4FC591D491F1
:1020F000662351F42FB7F8948C91932F90958923F0
:102100008C93888189230BC0623061F42FB7F894D7
:102110008C91932F909589238C938881832B88832E
:102120002FBF06C09FB7F8948C91832B8C939FBFD1
:10213000DF91CF910895482F50E0CA0184529C4FFF
:10214000FC012491CA0188539C4FFC0194914C548A
:102150005C4FFA013491332309F440C0222351F13A
:10216000233071F0243028F42130A1F0223011F511
:1021700014C02630B1F02730C1F02430D9F404C0A7
:10218000809180008F7703C0809180008F7D809345
:10219000800010C084B58F7702C084B58F7D84BD68
:1021A00009C08091B0008F7703C08091B0008F7D0F
:1021B0008093B000E32FF0E0EE0FFF1FE056FC4FDE
:1021C000A591B4912FB7F894662321F48C91909542
:1021D000892302C08C91892B8C932FBF0895682F7F
:1021E00070E0CB0184529C4FFC012491CB018853B9
:1021F0009C4FFC0144916C547C4FFB0194919923BA
:1022000019F420E030E03CC0222351F1233071F07A
:10221000243028F42130A1F0223011F514C02630EA
:10222000B1F02730C1F02430D9F404C0809180008F
:102230008F7703C0809180008F7D8093800010C0D5
:1022400084B58F7702C084B58F7D84BD09C080912D
:10225000B0008F7703C08091B0008F7D8093B00075
:10226000892F90E0880F991F86559C4FFC01A591FE
:10227000B4918C9120E030E0842311F021E030E033
:10228000C9010895BF92CF92DF92EF92FF920F9310
:102290001F93CF93DF93E82EF62EB42EC7E0D0E045
:1022A000022F10E087E0C82ED12CBB2059F4B601D4
:1022B0006C1B7D0BC80102C0959587956A95E2F766
:1022C000BC0107C0B8010C2E02C0759567950A9431
:1022D000E2F761708E2D0E949B108F2D61E00E94AD
:1022E0009B108F2D60E00E949B1021979FEFCF3FA6
:1022F000D907D9F6DF91CF911F910F91FF90EF9001
:10230000DF90CF90BF900895089581D180F09F37DE
:1023100040F491110EF493C160E070E080E89FE317
:10232000089526F01B16611D711D811D01C11BC181
:102330000CD03AC132D140F029D130F021F45F3FC6
:1023400019F0F0C051117BC11EC13FD198F3992300
:10235000C9F35523B1F3951B550BBB27AA27621769
:102360007307840738F09F5F5F4F220F331F441FAE
:10237000AA1FA9F333D00E2E3AF0E0E830D09150E6
:102380005040E695001CCAF729D0FE2F27D0660FD3
:10239000771F881FBB1F261737074807AB07B0E812
:1023A00009F0BB0B802DBF01FF2793585F4F2AF028
:1023B0009E3F510568F0B6C042C15F3FECF3983EC6
:1023C000DCF3869577956795B795F7959F5FC9F785
:1023D000880F911D9695879597F90895E1E0660F0E
:1023E000771F881FBB1F621773078407BA0720F087
:1023F000621B730B840BBA0BEE1F88F7E0950895F0
:1024000004D06894B1111BC10895E7D088F09F579C
:1024100090F0B92F9927B751A0F0D1F0660F771F30
:10242000881F991F1AF0BA95C9F712C0B13081F010
:1024300005D1B1E0089502C1672F782F8827B85FD2
:1024400039F0B93FCCF3869577956795B395D9F771
:102450003EF490958095709561957F4F8F4F9F4F7B
:102460000895E89409C097FB3EF490958095709587
:1024700061957F4F8F4F9F4F9923A9F0F92F96E9D0
:10248000BB279395F695879577956795B795F11145
:10249000F8CFFAF4BB0F11F460FF1BC06F5F7F4FE2
:1024A0008F4F9F4F16C0882311F096E911C07723F4
:1024B00021F09EE8872F762F05C0662371F096E8FD
:1024C000862F70E060E02AF09A95660F771F881FCC
:1024D000DAF7880F9695879597F90895990F000870
:1024E000550FAA0BE0E8FEEF16161706E807F907E6
:1024F000C0F012161306E407F50798F0621B730B81
:10250000840B950B39F40A2661F0232B242B252B01
:1025100021F408950A2609F4A140A6958FEF811DA4
:10252000811D089597F99F6780E870E060E0089545
:10253000882371F4772321F09850872B762F07C0DA
:10254000662311F499270DC09051862B70E060E04E
:102550002AF09A95660F771F881FDAF7880F9695ED
:10256000879597F908959F3F49F0915028F48695F3
:1025700077956795B7959F5F80389F4F880F9695A1
:10258000879597F908959FEF80EC089500240A94A9
:102590001616170618060906089500240A9412163E
:1025A0001306140605060895092E0394000C11F471
:1025B000882352F0BB0F40F4BF2B11F460FF04C01E
:1025C0006F5F7F4F8F4F9F4F089557FD9058440F77
:1025D000551F59F05F3F71F04795880F97FB991F82
:1025E00061F09F3F79F0879508951216130614063F
:1025F000551FF2CF4695F1DF08C0161617061806CC
:10260000991FF1CF86957105610508940895E5DF5E
:10261000A0F0BEE7B91788F4BB279F3860F4161600
:10262000B11D672F782F8827985FF7CF869577950C
:102630006795B11D93959639C8F30895E894BB2723
:1026400066277727CB0197F9089548DF08F48FEFC5
:1026500008950BD0A9CF9ADF28F09FDF18F09523BB
:1026600009F060CF90CF1124EACFAFDFA0F3959FA0
:10267000D1F3950F50E0551F629FF001729FBB2769
:10268000F00DB11D639FAA27F00DB11DAA1F649F15
:102690006627B00DA11D661F829F2227B00DA11DC8
:1026A000621F739FB00DA11D621F839FA00D611D4E
:1026B000221F749F3327A00D611D231F849F600D6F
:1026C000211D822F762F6A2F11249F5750408AF0A8
:1026D000E1F088234AF0EE0FFF1FBB1F661F771F34
:1026E000881F91505040A9F79E3F510570F01ACFB6
:1026F000A6CF5F3FECF3983EDCF386957795679520
:10270000B795F795E7959F5FC1F7FE2B880F911D51
:102710009695879597F90895629FD001739FF00170
:10272000829FE00DF11D649FE00DF11D929FF00D61
:10273000839FF00D749FF00D659FF00D9927729F98
:10274000B00DE11DF91F639FB00DE11DF91FBD0123
:10275000CF011124089597FB092E07260AD077FD93
:1027600004D049D006D000201AF4709561957F4FAF
:102770000895F6F7909581959F4F0895A1E21A2E3E
:10278000AA1BBB1BFD010DC0AA1FBB1FEE1FFF1F15
:10279000A217B307E407F50720F0A21BB30BE40B65
:1027A000F50B661F771F881F991F1A9469F76095AC
:1027B0007095809590959B01AC01BD01CF01089566
:1027C00097FB092E05260ED057FD04D0D7DF0AD07F
:1027D000001C38F450954095309521953F4F4F4F50
:1027E0005F4F0895F6F790958095709561957F4FAE
:1027F0008F4F9F4F0895AA1BBB1B51E107C0AA1F13
:10280000BB1FA617B70710F0A61BB70B881F991F91
:102810005A95A9F780959095BC01CD010895EE0FCA
:10282000FF1F0590F491E02D09942F923F924F9253
:102830005F926F927F928F929F92AF92BF92CF9250
:10284000DF92EF92FF920F931F93CF93DF93CDB759
:10285000DEB7CA1BDB0B0FB6F894DEBF0FBECDBFD1
:1028600009942A88398848885F846E847D848C84A2
:102870009B84AA84B984C884DF80EE80FD800C81AB
:102880001B81AA81B981CE0FD11D0FB6F894DEBF8E
:102890000FBECDBFED01089513E0C2EFD3E004C039
:1028A000FE010E9411142296C43FD107C9F7F89483
:0228B000FFCF58
:1028B20051554555453A20696E7375666669636977
:1028C200656E74206D656D6F727920746F20696E0C
:1028D200697469616C697A652071756575652E0028
:1028E20051554555453A206572726F72206475657F
:1028F20020746F20756E646573697261626C652005
:1029020073697A6520666F722071756575652073CB
:10291200697A652E0051554555453A20696E7375A1
:102922006666696369656E74206D656D6F72792084
:10293200746F20696E697469616C697A6520746567
:102942006D706F726172792071756575652E0020E8
:102952004C4F4F5345522023000051554555453A9F
:102962002063616E277420706F70206974656D201A
:1029720066726F6D2071756575653A207175657542
:102982006520697320656D7074792E000100000066
:10299200203C3C4C4F4F50494E47204C454E493EFF
:1029A2003E0020474F2120474F2120474F21200042
:1029B2002021545552424F21200002040000000001
:1029C20000000000000000000000008000ED070091
:0229D200000003
:00000001FF
